{
  "_format": "hh-sol-artifact-1",
  "contractName": "InvoiceFactory",
  "sourceName": "contracts/InvoiceFactory.sol",
  "abi": [
    {
      "inputs": [
        {
          "internalType": "address",
          "name": "add",
          "type": "address"
        }
      ],
      "stateMutability": "payable",
      "type": "constructor"
    },
    {
      "inputs": [],
      "name": "AccessControlBadConfirmation",
      "type": "error"
    },
    {
      "inputs": [
        {
          "internalType": "address",
          "name": "account",
          "type": "address"
        },
        {
          "internalType": "bytes32",
          "name": "neededRole",
          "type": "bytes32"
        }
      ],
      "name": "AccessControlUnauthorizedAccount",
      "type": "error"
    },
    {
      "anonymous": false,
      "inputs": [
        {
          "indexed": false,
          "internalType": "address",
          "name": "from",
          "type": "address"
        },
        {
          "indexed": false,
          "internalType": "uint256",
          "name": "amount",
          "type": "uint256"
        }
      ],
      "name": "CashReceived",
      "type": "event"
    },
    {
      "anonymous": false,
      "inputs": [
        {
          "indexed": true,
          "internalType": "bytes32",
          "name": "role",
          "type": "bytes32"
        },
        {
          "indexed": true,
          "internalType": "bytes32",
          "name": "previousAdminRole",
          "type": "bytes32"
        },
        {
          "indexed": true,
          "internalType": "bytes32",
          "name": "newAdminRole",
          "type": "bytes32"
        }
      ],
      "name": "RoleAdminChanged",
      "type": "event"
    },
    {
      "anonymous": false,
      "inputs": [
        {
          "indexed": true,
          "internalType": "bytes32",
          "name": "role",
          "type": "bytes32"
        },
        {
          "indexed": true,
          "internalType": "address",
          "name": "account",
          "type": "address"
        },
        {
          "indexed": true,
          "internalType": "address",
          "name": "sender",
          "type": "address"
        }
      ],
      "name": "RoleGranted",
      "type": "event"
    },
    {
      "anonymous": false,
      "inputs": [
        {
          "indexed": true,
          "internalType": "bytes32",
          "name": "role",
          "type": "bytes32"
        },
        {
          "indexed": true,
          "internalType": "address",
          "name": "account",
          "type": "address"
        },
        {
          "indexed": true,
          "internalType": "address",
          "name": "sender",
          "type": "address"
        }
      ],
      "name": "RoleRevoked",
      "type": "event"
    },
    {
      "inputs": [],
      "name": "DEFAULT_ADMIN_ROLE",
      "outputs": [
        {
          "internalType": "bytes32",
          "name": "",
          "type": "bytes32"
        }
      ],
      "stateMutability": "view",
      "type": "function"
    },
    {
      "inputs": [],
      "name": "STORE_RELAYER_ADDRESS",
      "outputs": [
        {
          "internalType": "address payable",
          "name": "",
          "type": "address"
        }
      ],
      "stateMutability": "view",
      "type": "function"
    },
    {
      "inputs": [
        {
          "components": [
            {
              "internalType": "uint256",
              "name": "amount",
              "type": "uint256"
            },
            {
              "internalType": "uint8",
              "name": "status",
              "type": "uint8"
            },
            {
              "internalType": "string",
              "name": "timestamp",
              "type": "string"
            },
            {
              "internalType": "address",
              "name": "transactionHash",
              "type": "address"
            },
            {
              "internalType": "address",
              "name": "customer",
              "type": "address"
            },
            {
              "internalType": "address",
              "name": "seller",
              "type": "address"
            }
          ],
          "internalType": "struct BillDefinition.Bill",
          "name": "bill",
          "type": "tuple"
        }
      ],
      "name": "createInvoice",
      "outputs": [],
      "stateMutability": "nonpayable",
      "type": "function"
    },
    {
      "inputs": [
        {
          "internalType": "uint256",
          "name": "",
          "type": "uint256"
        }
      ],
      "name": "deployedInvoice",
      "outputs": [
        {
          "internalType": "address",
          "name": "",
          "type": "address"
        }
      ],
      "stateMutability": "view",
      "type": "function"
    },
    {
      "inputs": [],
      "name": "getBalance",
      "outputs": [
        {
          "internalType": "uint256",
          "name": "",
          "type": "uint256"
        }
      ],
      "stateMutability": "view",
      "type": "function"
    },
    {
      "inputs": [],
      "name": "getDeployedInvoice",
      "outputs": [
        {
          "internalType": "address[]",
          "name": "",
          "type": "address[]"
        }
      ],
      "stateMutability": "view",
      "type": "function"
    },
    {
      "inputs": [
        {
          "internalType": "bytes32",
          "name": "role",
          "type": "bytes32"
        }
      ],
      "name": "getRoleAdmin",
      "outputs": [
        {
          "internalType": "bytes32",
          "name": "",
          "type": "bytes32"
        }
      ],
      "stateMutability": "view",
      "type": "function"
    },
    {
      "inputs": [
        {
          "internalType": "bytes32",
          "name": "role",
          "type": "bytes32"
        },
        {
          "internalType": "address",
          "name": "account",
          "type": "address"
        }
      ],
      "name": "grantRole",
      "outputs": [],
      "stateMutability": "nonpayable",
      "type": "function"
    },
    {
      "inputs": [
        {
          "internalType": "bytes32",
          "name": "role",
          "type": "bytes32"
        },
        {
          "internalType": "address",
          "name": "account",
          "type": "address"
        }
      ],
      "name": "hasRole",
      "outputs": [
        {
          "internalType": "bool",
          "name": "",
          "type": "bool"
        }
      ],
      "stateMutability": "view",
      "type": "function"
    },
    {
      "inputs": [
        {
          "internalType": "bytes32",
          "name": "role",
          "type": "bytes32"
        },
        {
          "internalType": "address",
          "name": "callerConfirmation",
          "type": "address"
        }
      ],
      "name": "renounceRole",
      "outputs": [],
      "stateMutability": "nonpayable",
      "type": "function"
    },
    {
      "inputs": [
        {
          "internalType": "bytes32",
          "name": "role",
          "type": "bytes32"
        },
        {
          "internalType": "address",
          "name": "account",
          "type": "address"
        }
      ],
      "name": "revokeRole",
      "outputs": [],
      "stateMutability": "nonpayable",
      "type": "function"
    },
    {
      "inputs": [
        {
          "internalType": "bytes4",
          "name": "interfaceId",
          "type": "bytes4"
        }
      ],
      "name": "supportsInterface",
      "outputs": [
        {
          "internalType": "bool",
          "name": "",
          "type": "bool"
        }
      ],
      "stateMutability": "view",
      "type": "function"
    },
    {
      "stateMutability": "payable",
      "type": "receive"
    }
  ],
  "bytecode": "0x608060405273c6a2907273ab4157eb8594f471cb24f89af71d3d600160006101000a81548173ffffffffffffffffffffffffffffffffffffffff021916908373ffffffffffffffffffffffffffffffffffffffff160217905550604051620047cc380380620047cc83398181016040528101906200007e9190620002dd565b80600160006101000a81548173ffffffffffffffffffffffffffffffffffffffff021916908373ffffffffffffffffffffffffffffffffffffffff160217905550620000f66000801b600160009054906101000a900473ffffffffffffffffffffffffffffffffffffffff16620000fe60201b60201c565b50506200030f565b60006200011283836200020160201b60201c565b620001f657600160008085815260200190815260200160002060000160008473ffffffffffffffffffffffffffffffffffffffff1673ffffffffffffffffffffffffffffffffffffffff16815260200190815260200160002060006101000a81548160ff021916908315150217905550620001926200026b60201b60201c565b73ffffffffffffffffffffffffffffffffffffffff168273ffffffffffffffffffffffffffffffffffffffff16847f2f8788117e7eff1d82e926ec794901d17c78024a50270940304540a733656f0d60405160405180910390a460019050620001fb565b600090505b92915050565b600080600084815260200190815260200160002060000160008373ffffffffffffffffffffffffffffffffffffffff1673ffffffffffffffffffffffffffffffffffffffff16815260200190815260200160002060009054906101000a900460ff16905092915050565b600033905090565b600080fd5b600073ffffffffffffffffffffffffffffffffffffffff82169050919050565b6000620002a58262000278565b9050919050565b620002b78162000298565b8114620002c357600080fd5b50565b600081519050620002d781620002ac565b92915050565b600060208284031215620002f657620002f562000273565b5b60006200030684828501620002c6565b91505092915050565b6144ad806200031f6000396000f3fe608060405260043610620000bb5760003560e01c8063586a99a5116200006d578063586a99a514620002475780636066825a146200028b57806391d1485414620002b95780639aa1b08014620002fd578063a217fddf146200032d578063d547741f146200035d57620000fe565b806301ffc9a7146200010357806312065fe0146200014757806323e2900f1462000177578063248a9ca314620001a75780632f2ff15d14620001eb57806336568abe146200021957620000fe565b36620000fe577f129542596700c68b55905e447081b1a495ad219a2c1e6e66352c94af4779364c3334604051620000f492919062000a57565b60405180910390a1005b600080fd5b3480156200011057600080fd5b506200012f600480360381019062000129919062000af5565b6200038b565b6040516200013e919062000b44565b60405180910390f35b3480156200015457600080fd5b506200015f62000408565b6040516200016e919062000b61565b60405180910390f35b3480156200018457600080fd5b506200018f62000410565b6040516200019e919062000c4c565b60405180910390f35b348015620001b457600080fd5b50620001d36004803603810190620001cd919062000cab565b620004a0565b604051620001e2919062000cee565b60405180910390f35b348015620001f857600080fd5b5062000217600480360381019062000211919062000d3c565b620004bf565b005b3480156200022657600080fd5b506200024560048036038101906200023f919062000d3c565b620004e7565b005b3480156200025457600080fd5b506200027360048036038101906200026d919062000db4565b62000567565b60405162000282919062000de6565b60405180910390f35b3480156200029857600080fd5b50620002b76004803603810190620002b191906200107d565b620005a7565b005b348015620002c657600080fd5b50620002e56004803603810190620002df919062000d3c565b6200065b565b604051620002f4919062000b44565b60405180910390f35b3480156200030a57600080fd5b5062000315620006c5565b604051620003249190620010f3565b60405180910390f35b3480156200033a57600080fd5b5062000345620006eb565b60405162000354919062000cee565b60405180910390f35b3480156200036a57600080fd5b5062000389600480360381019062000383919062000d3c565b620006f2565b005b60007f7965db0b000000000000000000000000000000000000000000000000000000007bffffffffffffffffffffffffffffffffffffffffffffffffffffffff1916827bffffffffffffffffffffffffffffffffffffffffffffffffffffffff1916148062000401575062000400826200071a565b5b9050919050565b600047905090565b606060028054806020026020016040519081016040528092919081815260200182805480156200049657602002820191906000526020600020905b8160009054906101000a900473ffffffffffffffffffffffffffffffffffffffff1673ffffffffffffffffffffffffffffffffffffffff16815260200190600101908083116200044b575b5050505050905090565b6000806000838152602001908152602001600020600101549050919050565b620004ca82620004a0565b620004d58162000784565b620004e183836200079c565b50505050565b620004f162000893565b73ffffffffffffffffffffffffffffffffffffffff168173ffffffffffffffffffffffffffffffffffffffff161462000556576040517f6697b23200000000000000000000000000000000000000000000000000000000815260040160405180910390fd5b6200056282826200089b565b505050565b600281815481106200057857600080fd5b906000526020600020016000915054906101000a900473ffffffffffffffffffffffffffffffffffffffff1681565b6000801b620005b68162000784565b600082604051620005c790620009e9565b620005d3919062001250565b604051809103906000f080158015620005f0573d6000803e3d6000fd5b5090506002819080600181540180825580915050600190039060005260206000200160009091909190916101000a81548173ffffffffffffffffffffffffffffffffffffffff021916908373ffffffffffffffffffffffffffffffffffffffff160217905550505050565b600080600084815260200190815260200160002060000160008373ffffffffffffffffffffffffffffffffffffffff1673ffffffffffffffffffffffffffffffffffffffff16815260200190815260200160002060009054906101000a900460ff16905092915050565b600160009054906101000a900473ffffffffffffffffffffffffffffffffffffffff1681565b6000801b81565b620006fd82620004a0565b620007088162000784565b6200071483836200089b565b50505050565b60007f01ffc9a7000000000000000000000000000000000000000000000000000000007bffffffffffffffffffffffffffffffffffffffffffffffffffffffff1916827bffffffffffffffffffffffffffffffffffffffffffffffffffffffff1916149050919050565b62000799816200079362000893565b62000993565b50565b6000620007aa83836200065b565b6200088857600160008085815260200190815260200160002060000160008473ffffffffffffffffffffffffffffffffffffffff1673ffffffffffffffffffffffffffffffffffffffff16815260200190815260200160002060006101000a81548160ff0219169083151502179055506200082462000893565b73ffffffffffffffffffffffffffffffffffffffff168273ffffffffffffffffffffffffffffffffffffffff16847f2f8788117e7eff1d82e926ec794901d17c78024a50270940304540a733656f0d60405160405180910390a4600190506200088d565b600090505b92915050565b600033905090565b6000620008a983836200065b565b156200098857600080600085815260200190815260200160002060000160008473ffffffffffffffffffffffffffffffffffffffff1673ffffffffffffffffffffffffffffffffffffffff16815260200190815260200160002060006101000a81548160ff0219169083151502179055506200092462000893565b73ffffffffffffffffffffffffffffffffffffffff168273ffffffffffffffffffffffffffffffffffffffff16847ff6391f5c32d9c69d2a47ea670b442974b53935d1edc7fd64eb21e047a839171b60405160405180910390a4600190506200098d565b600090505b92915050565b6200099f82826200065b565b620009e55780826040517fe2517d3f000000000000000000000000000000000000000000000000000000008152600401620009dc92919062001274565b60405180910390fd5b5050565b6131d680620012a283390190565b600073ffffffffffffffffffffffffffffffffffffffff82169050919050565b600062000a2482620009f7565b9050919050565b62000a368162000a17565b82525050565b6000819050919050565b62000a518162000a3c565b82525050565b600060408201905062000a6e600083018562000a2b565b62000a7d602083018462000a46565b9392505050565b6000604051905090565b600080fd5b600080fd5b60007fffffffff0000000000000000000000000000000000000000000000000000000082169050919050565b62000acf8162000a98565b811462000adb57600080fd5b50565b60008135905062000aef8162000ac4565b92915050565b60006020828403121562000b0e5762000b0d62000a8e565b5b600062000b1e8482850162000ade565b91505092915050565b60008115159050919050565b62000b3e8162000b27565b82525050565b600060208201905062000b5b600083018462000b33565b92915050565b600060208201905062000b78600083018462000a46565b92915050565b600081519050919050565b600082825260208201905092915050565b6000819050602082019050919050565b62000bb58162000a17565b82525050565b600062000bc9838362000baa565b60208301905092915050565b6000602082019050919050565b600062000bef8262000b7e565b62000bfb818562000b89565b935062000c088362000b9a565b8060005b8381101562000c3f57815162000c23888262000bbb565b975062000c308362000bd5565b92505060018101905062000c0c565b5085935050505092915050565b6000602082019050818103600083015262000c68818462000be2565b905092915050565b6000819050919050565b62000c858162000c70565b811462000c9157600080fd5b50565b60008135905062000ca58162000c7a565b92915050565b60006020828403121562000cc45762000cc362000a8e565b5b600062000cd48482850162000c94565b91505092915050565b62000ce88162000c70565b82525050565b600060208201905062000d05600083018462000cdd565b92915050565b62000d168162000a17565b811462000d2257600080fd5b50565b60008135905062000d368162000d0b565b92915050565b6000806040838503121562000d565762000d5562000a8e565b5b600062000d668582860162000c94565b925050602062000d798582860162000d25565b9150509250929050565b62000d8e8162000a3c565b811462000d9a57600080fd5b50565b60008135905062000dae8162000d83565b92915050565b60006020828403121562000dcd5762000dcc62000a8e565b5b600062000ddd8482850162000d9d565b91505092915050565b600060208201905062000dfd600083018462000a2b565b92915050565b600080fd5b6000601f19601f8301169050919050565b7f4e487b7100000000000000000000000000000000000000000000000000000000600052604160045260246000fd5b62000e538262000e08565b810181811067ffffffffffffffff8211171562000e755762000e7462000e19565b5b80604052505050565b600062000e8a62000a84565b905062000e98828262000e48565b919050565b600080fd5b600060ff82169050919050565b62000eba8162000ea2565b811462000ec657600080fd5b50565b60008135905062000eda8162000eaf565b92915050565b600080fd5b600080fd5b600067ffffffffffffffff82111562000f085762000f0762000e19565b5b62000f138262000e08565b9050602081019050919050565b82818337600083830152505050565b600062000f4662000f408462000eea565b62000e7e565b90508281526020810184848401111562000f655762000f6462000ee5565b5b62000f7284828562000f20565b509392505050565b600082601f83011262000f925762000f9162000ee0565b5b813562000fa484826020860162000f2f565b91505092915050565b600060c0828403121562000fc65762000fc562000e03565b5b62000fd260c062000e7e565b9050600062000fe48482850162000d9d565b600083015250602062000ffa8482850162000ec9565b602083015250604082013567ffffffffffffffff81111562001021576200102062000e9d565b5b6200102f8482850162000f7a565b6040830152506060620010458482850162000d25565b60608301525060806200105b8482850162000d25565b60808301525060a0620010718482850162000d25565b60a08301525092915050565b60006020828403121562001096576200109562000a8e565b5b600082013567ffffffffffffffff811115620010b757620010b662000a93565b5b620010c58482850162000fad565b91505092915050565b6000620010db82620009f7565b9050919050565b620010ed81620010ce565b82525050565b60006020820190506200110a6000830184620010e2565b92915050565b6200111b8162000a3c565b82525050565b6200112c8162000ea2565b82525050565b600081519050919050565b600082825260208201905092915050565b60005b838110156200116e57808201518184015260208101905062001151565b60008484015250505050565b6000620011878262001132565b6200119381856200113d565b9350620011a58185602086016200114e565b620011b08162000e08565b840191505092915050565b600060c083016000830151620011d5600086018262001110565b506020830151620011ea602086018262001121565b50604083015184820360408601526200120482826200117a565b91505060608301516200121b606086018262000baa565b50608083015162001230608086018262000baa565b5060a08301516200124560a086018262000baa565b508091505092915050565b600060208201905081810360008301526200126c8184620011bb565b905092915050565b60006040820190506200128b600083018562000a2b565b6200129a602083018462000cdd565b939250505056fe60806040523480156200001157600080fd5b50604051620031d6380380620031d6833981810160405281019062000037919062000760565b6040518060400160405280600781526020017f496e766f696365000000000000000000000000000000000000000000000000008152506040518060400160405280600481526020017f42494c4c000000000000000000000000000000000000000000000000000000008152508160009081620000b49190620009f2565b508060019081620000c69190620009f2565b5050508060076000820151816000015560208201518160010160006101000a81548160ff021916908360ff16021790555060408201518160020190816200010e9190620009f2565b5060608201518160030160006101000a81548173ffffffffffffffffffffffffffffffffffffffff021916908373ffffffffffffffffffffffffffffffffffffffff16021790555060808201518160040160006101000a81548173ffffffffffffffffffffffffffffffffffffffff021916908373ffffffffffffffffffffffffffffffffffffffff16021790555060a08201518160050160006101000a81548173ffffffffffffffffffffffffffffffffffffffff021916908373ffffffffffffffffffffffffffffffffffffffff1602179055509050506200023e7ffb338459882b624b9125c4cef6045cf2f3a5452b39abbaf54c2e5c45fcfb5942600760040160009054906101000a900473ffffffffffffffffffffffffffffffffffffffff166200029e60201b60201c565b50620002967ffb338459882b624b9125c4cef6045cf2f3a5452b39abbaf54c2e5c45fcfb5942600760050160009054906101000a900473ffffffffffffffffffffffffffffffffffffffff166200029e60201b60201c565b505062000ad9565b6000620002b28383620003a260201b60201c565b620003975760016006600085815260200190815260200160002060000160008473ffffffffffffffffffffffffffffffffffffffff1673ffffffffffffffffffffffffffffffffffffffff16815260200190815260200160002060006101000a81548160ff021916908315150217905550620003336200040d60201b60201c565b73ffffffffffffffffffffffffffffffffffffffff168273ffffffffffffffffffffffffffffffffffffffff16847f2f8788117e7eff1d82e926ec794901d17c78024a50270940304540a733656f0d60405160405180910390a4600190506200039c565b600090505b92915050565b60006006600084815260200190815260200160002060000160008373ffffffffffffffffffffffffffffffffffffffff1673ffffffffffffffffffffffffffffffffffffffff16815260200190815260200160002060009054906101000a900460ff16905092915050565b600033905090565b6000604051905090565b600080fd5b600080fd5b600080fd5b6000601f19601f8301169050919050565b7f4e487b7100000000000000000000000000000000000000000000000000000000600052604160045260246000fd5b62000479826200042e565b810181811067ffffffffffffffff821117156200049b576200049a6200043f565b5b80604052505050565b6000620004b062000415565b9050620004be82826200046e565b919050565b600080fd5b6000819050919050565b620004dd81620004c8565b8114620004e957600080fd5b50565b600081519050620004fd81620004d2565b92915050565b600060ff82169050919050565b6200051b8162000503565b81146200052757600080fd5b50565b6000815190506200053b8162000510565b92915050565b600080fd5b600080fd5b600067ffffffffffffffff8211156200056957620005686200043f565b5b62000574826200042e565b9050602081019050919050565b60005b83811015620005a157808201518184015260208101905062000584565b60008484015250505050565b6000620005c4620005be846200054b565b620004a4565b905082815260208101848484011115620005e357620005e262000546565b5b620005f084828562000581565b509392505050565b600082601f83011262000610576200060f62000541565b5b815162000622848260208601620005ad565b91505092915050565b600073ffffffffffffffffffffffffffffffffffffffff82169050919050565b600062000658826200062b565b9050919050565b6200066a816200064b565b81146200067657600080fd5b50565b6000815190506200068a816200065f565b92915050565b600060c08284031215620006a957620006a862000429565b5b620006b560c0620004a4565b90506000620006c784828501620004ec565b6000830152506020620006dd848285016200052a565b602083015250604082015167ffffffffffffffff811115620007045762000703620004c3565b5b6200071284828501620005f8565b6040830152506060620007288482850162000679565b60608301525060806200073e8482850162000679565b60808301525060a0620007548482850162000679565b60a08301525092915050565b6000602082840312156200077957620007786200041f565b5b600082015167ffffffffffffffff8111156200079a576200079962000424565b5b620007a88482850162000690565b91505092915050565b600081519050919050565b7f4e487b7100000000000000000000000000000000000000000000000000000000600052602260045260246000fd5b600060028204905060018216806200080457607f821691505b6020821081036200081a5762000819620007bc565b5b50919050565b60008190508160005260206000209050919050565b60006020601f8301049050919050565b600082821b905092915050565b600060088302620008847fffffffffffffffffffffffffffffffffffffffffffffffffffffffffffffffff8262000845565b62000890868362000845565b95508019841693508086168417925050509392505050565b6000819050919050565b6000620008d3620008cd620008c784620004c8565b620008a8565b620004c8565b9050919050565b6000819050919050565b620008ef83620008b2565b62000907620008fe82620008da565b84845462000852565b825550505050565b600090565b6200091e6200090f565b6200092b818484620008e4565b505050565b5b8181101562000953576200094760008262000914565b60018101905062000931565b5050565b601f821115620009a2576200096c8162000820565b620009778462000835565b8101602085101562000987578190505b6200099f620009968562000835565b83018262000930565b50505b505050565b600082821c905092915050565b6000620009c760001984600802620009a7565b1980831691505092915050565b6000620009e28383620009b4565b9150826002028217905092915050565b620009fd82620007b1565b67ffffffffffffffff81111562000a195762000a186200043f565b5b62000a258254620007eb565b62000a3282828562000957565b600060209050601f83116001811462000a6a576000841562000a55578287015190505b62000a618582620009d4565b86555062000ad1565b601f19841662000a7a8662000820565b60005b8281101562000aa45784890151825560018201915060208501945060208101905062000a7d565b8683101562000ac4578489015162000ac0601f891682620009b4565b8355505b6001600288020188555050505b505050505050565b6126ed8062000ae96000396000f3fe608060405234801561001057600080fd5b50600436106101375760003560e01c806370a08231116100b8578063b88d4fde1161007c578063b88d4fde1461035e578063bbbbaaad1461037a578063c87b56dd14610398578063d547741f146103c8578063e2f8b619146103e4578063e985e9c51461040257610137565b806370a08231146102a657806391d14854146102d657806395d89b4114610306578063a217fddf14610324578063a22cb4651461034257610137565b8063248a9ca3116100ff578063248a9ca3146101f25780632f2ff15d1461022257806336568abe1461023e57806342842e0e1461025a5780636352211e1461027657610137565b806301ffc9a71461013c57806306fdde031461016c578063081812fc1461018a578063095ea7b3146101ba57806323b872dd146101d6575b600080fd5b61015660048036038101906101519190611d12565b610432565b6040516101639190611d5a565b60405180910390f35b610174610454565b6040516101819190611e05565b60405180910390f35b6101a4600480360381019061019f9190611e5d565b6104e6565b6040516101b19190611ecb565b60405180910390f35b6101d460048036038101906101cf9190611f12565b610502565b005b6101f060048036038101906101eb9190611f52565b610518565b005b61020c60048036038101906102079190611fdb565b61061a565b6040516102199190612017565b60405180910390f35b61023c60048036038101906102379190612032565b61063a565b005b61025860048036038101906102539190612032565b61065c565b005b610274600480360381019061026f9190611f52565b6106d7565b005b610290600480360381019061028b9190611e5d565b6106f7565b60405161029d9190611ecb565b60405180910390f35b6102c060048036038101906102bb9190612072565b610709565b6040516102cd91906120ae565b60405180910390f35b6102f060048036038101906102eb9190612032565b6107c3565b6040516102fd9190611d5a565b60405180910390f35b61030e61082e565b60405161031b9190611e05565b60405180910390f35b61032c6108c0565b6040516103399190612017565b60405180910390f35b61035c600480360381019061035791906120f5565b6108c7565b005b6103786004803603810190610373919061226a565b6108dd565b005b6103826108fa565b60405161038f9190612017565b60405180910390f35b6103b260048036038101906103ad9190611e5d565b61091e565b6040516103bf9190611e05565b60405180910390f35b6103e260048036038101906103dd9190612032565b610987565b005b6103ec6109a9565b6040516103f991906123fa565b60405180910390f35b61041c6004803603810190610417919061241c565b610ba9565b6040516104299190611d5a565b60405180910390f35b600061043d82610c3d565b8061044d575061044c82610d1f565b5b9050919050565b6060600080546104639061248b565b80601f016020809104026020016040519081016040528092919081815260200182805461048f9061248b565b80156104dc5780601f106104b1576101008083540402835291602001916104dc565b820191906000526020600020905b8154815290600101906020018083116104bf57829003601f168201915b5050505050905090565b60006104f182610d99565b506104fb82610e21565b9050919050565b610514828261050f610e5e565b610e66565b5050565b600073ffffffffffffffffffffffffffffffffffffffff168273ffffffffffffffffffffffffffffffffffffffff160361058a5760006040517f64a0ae920000000000000000000000000000000000000000000000000000000081526004016105819190611ecb565b60405180910390fd5b600061059e8383610599610e5e565b610e78565b90508373ffffffffffffffffffffffffffffffffffffffff168173ffffffffffffffffffffffffffffffffffffffff1614610614578382826040517f64283d7b00000000000000000000000000000000000000000000000000000000815260040161060b939291906124bc565b60405180910390fd5b50505050565b600060066000838152602001908152602001600020600101549050919050565b6106438261061a565b61064c81611092565b61065683836110a6565b50505050565b610664610e5e565b73ffffffffffffffffffffffffffffffffffffffff168173ffffffffffffffffffffffffffffffffffffffff16146106c8576040517f6697b23200000000000000000000000000000000000000000000000000000000815260040160405180910390fd5b6106d28282611198565b505050565b6106f2838383604051806020016040528060008152506108dd565b505050565b600061070282610d99565b9050919050565b60008073ffffffffffffffffffffffffffffffffffffffff168273ffffffffffffffffffffffffffffffffffffffff160361077c5760006040517f89c62b640000000000000000000000000000000000000000000000000000000081526004016107739190611ecb565b60405180910390fd5b600360008373ffffffffffffffffffffffffffffffffffffffff1673ffffffffffffffffffffffffffffffffffffffff168152602001908152602001600020549050919050565b60006006600084815260200190815260200160002060000160008373ffffffffffffffffffffffffffffffffffffffff1673ffffffffffffffffffffffffffffffffffffffff16815260200190815260200160002060009054906101000a900460ff16905092915050565b60606001805461083d9061248b565b80601f01602080910402602001604051908101604052809291908181526020018280546108699061248b565b80156108b65780601f1061088b576101008083540402835291602001916108b6565b820191906000526020600020905b81548152906001019060200180831161089957829003601f168201915b5050505050905090565b6000801b81565b6108d96108d2610e5e565b838361128b565b5050565b6108e8848484610518565b6108f4848484846113fa565b50505050565b7ffb338459882b624b9125c4cef6045cf2f3a5452b39abbaf54c2e5c45fcfb594281565b606061092982610d99565b5060006109346115b1565b90506000815111610954576040518060200160405280600081525061097f565b8061095e846115c8565b60405160200161096f92919061252f565b6040516020818303038152906040525b915050919050565b6109908261061a565b61099981611092565b6109a38383611198565b50505050565b6109b1611c2b565b7ffb338459882b624b9125c4cef6045cf2f3a5452b39abbaf54c2e5c45fcfb59426109db81611092565b60076040518060c0016040529081600082015481526020016001820160009054906101000a900460ff1660ff1660ff168152602001600282018054610a1f9061248b565b80601f0160208091040260200160405190810160405280929190818152602001828054610a4b9061248b565b8015610a985780601f10610a6d57610100808354040283529160200191610a98565b820191906000526020600020905b815481529060010190602001808311610a7b57829003601f168201915b505050505081526020016003820160009054906101000a900473ffffffffffffffffffffffffffffffffffffffff1673ffffffffffffffffffffffffffffffffffffffff1673ffffffffffffffffffffffffffffffffffffffff1681526020016004820160009054906101000a900473ffffffffffffffffffffffffffffffffffffffff1673ffffffffffffffffffffffffffffffffffffffff1673ffffffffffffffffffffffffffffffffffffffff1681526020016005820160009054906101000a900473ffffffffffffffffffffffffffffffffffffffff1673ffffffffffffffffffffffffffffffffffffffff1673ffffffffffffffffffffffffffffffffffffffff168152505091505090565b6000600560008473ffffffffffffffffffffffffffffffffffffffff1673ffffffffffffffffffffffffffffffffffffffff16815260200190815260200160002060008373ffffffffffffffffffffffffffffffffffffffff1673ffffffffffffffffffffffffffffffffffffffff16815260200190815260200160002060009054906101000a900460ff16905092915050565b60007f80ac58cd000000000000000000000000000000000000000000000000000000007bffffffffffffffffffffffffffffffffffffffffffffffffffffffff1916827bffffffffffffffffffffffffffffffffffffffffffffffffffffffff19161480610d0857507f5b5e139f000000000000000000000000000000000000000000000000000000007bffffffffffffffffffffffffffffffffffffffffffffffffffffffff1916827bffffffffffffffffffffffffffffffffffffffffffffffffffffffff1916145b80610d185750610d1782611696565b5b9050919050565b60007f7965db0b000000000000000000000000000000000000000000000000000000007bffffffffffffffffffffffffffffffffffffffffffffffffffffffff1916827bffffffffffffffffffffffffffffffffffffffffffffffffffffffff19161480610d925750610d9182610c3d565b5b9050919050565b600080610da583611700565b9050600073ffffffffffffffffffffffffffffffffffffffff168173ffffffffffffffffffffffffffffffffffffffff1603610e1857826040517f7e273289000000000000000000000000000000000000000000000000000000008152600401610e0f91906120ae565b60405180910390fd5b80915050919050565b60006004600083815260200190815260200160002060009054906101000a900473ffffffffffffffffffffffffffffffffffffffff169050919050565b600033905090565b610e73838383600161173d565b505050565b600080610e8484611700565b9050600073ffffffffffffffffffffffffffffffffffffffff168373ffffffffffffffffffffffffffffffffffffffff1614610ec657610ec5818486611902565b5b600073ffffffffffffffffffffffffffffffffffffffff168173ffffffffffffffffffffffffffffffffffffffff1614610f5757610f0860008560008061173d565b6001600360008373ffffffffffffffffffffffffffffffffffffffff1673ffffffffffffffffffffffffffffffffffffffff168152602001908152602001600020600082825403925050819055505b600073ffffffffffffffffffffffffffffffffffffffff168573ffffffffffffffffffffffffffffffffffffffff1614610fda576001600360008773ffffffffffffffffffffffffffffffffffffffff1673ffffffffffffffffffffffffffffffffffffffff168152602001908152602001600020600082825401925050819055505b846002600086815260200190815260200160002060006101000a81548173ffffffffffffffffffffffffffffffffffffffff021916908373ffffffffffffffffffffffffffffffffffffffff160217905550838573ffffffffffffffffffffffffffffffffffffffff168273ffffffffffffffffffffffffffffffffffffffff167fddf252ad1be2c89b69c2b068fc378daa952ba7f163c4a11628f55a4df523b3ef60405160405180910390a4809150509392505050565b6110a38161109e610e5e565b6119c6565b50565b60006110b283836107c3565b61118d5760016006600085815260200190815260200160002060000160008473ffffffffffffffffffffffffffffffffffffffff1673ffffffffffffffffffffffffffffffffffffffff16815260200190815260200160002060006101000a81548160ff02191690831515021790555061112a610e5e565b73ffffffffffffffffffffffffffffffffffffffff168273ffffffffffffffffffffffffffffffffffffffff16847f2f8788117e7eff1d82e926ec794901d17c78024a50270940304540a733656f0d60405160405180910390a460019050611192565b600090505b92915050565b60006111a483836107c3565b156112805760006006600085815260200190815260200160002060000160008473ffffffffffffffffffffffffffffffffffffffff1673ffffffffffffffffffffffffffffffffffffffff16815260200190815260200160002060006101000a81548160ff02191690831515021790555061121d610e5e565b73ffffffffffffffffffffffffffffffffffffffff168273ffffffffffffffffffffffffffffffffffffffff16847ff6391f5c32d9c69d2a47ea670b442974b53935d1edc7fd64eb21e047a839171b60405160405180910390a460019050611285565b600090505b92915050565b600073ffffffffffffffffffffffffffffffffffffffff168273ffffffffffffffffffffffffffffffffffffffff16036112fc57816040517f5b08ba180000000000000000000000000000000000000000000000000000000081526004016112f39190611ecb565b60405180910390fd5b80600560008573ffffffffffffffffffffffffffffffffffffffff1673ffffffffffffffffffffffffffffffffffffffff16815260200190815260200160002060008473ffffffffffffffffffffffffffffffffffffffff1673ffffffffffffffffffffffffffffffffffffffff16815260200190815260200160002060006101000a81548160ff0219169083151502179055508173ffffffffffffffffffffffffffffffffffffffff168373ffffffffffffffffffffffffffffffffffffffff167f17307eab39ab6107e8899845ad3d59bd9653f200f220920489ca2b5937696c31836040516113ed9190611d5a565b60405180910390a3505050565b60008373ffffffffffffffffffffffffffffffffffffffff163b11156115ab578273ffffffffffffffffffffffffffffffffffffffff1663150b7a0261143e610e5e565b8685856040518563ffffffff1660e01b815260040161146094939291906125a8565b6020604051808303816000875af192505050801561149c57506040513d601f19601f820116820180604052508101906114999190612609565b60015b611520573d80600081146114cc576040519150601f19603f3d011682016040523d82523d6000602084013e6114d1565b606091505b50600081510361151857836040517f64a0ae9200000000000000000000000000000000000000000000000000000000815260040161150f9190611ecb565b60405180910390fd5b805181602001fd5b63150b7a0260e01b7bffffffffffffffffffffffffffffffffffffffffffffffffffffffff1916817bffffffffffffffffffffffffffffffffffffffffffffffffffffffff1916146115a957836040517f64a0ae920000000000000000000000000000000000000000000000000000000081526004016115a09190611ecb565b60405180910390fd5b505b50505050565b606060405180602001604052806000815250905090565b6060600060016115d784611a17565b01905060008167ffffffffffffffff8111156115f6576115f561213f565b5b6040519080825280601f01601f1916602001820160405280156116285781602001600182028036833780820191505090505b509050600082602001820190505b60011561168b578080600190039150507f3031323334353637383961626364656600000000000000000000000000000000600a86061a8153600a858161167f5761167e612636565b5b04945060008503611636575b819350505050919050565b60007f01ffc9a7000000000000000000000000000000000000000000000000000000007bffffffffffffffffffffffffffffffffffffffffffffffffffffffff1916827bffffffffffffffffffffffffffffffffffffffffffffffffffffffff1916149050919050565b60006002600083815260200190815260200160002060009054906101000a900473ffffffffffffffffffffffffffffffffffffffff169050919050565b80806117765750600073ffffffffffffffffffffffffffffffffffffffff168273ffffffffffffffffffffffffffffffffffffffff1614155b156118aa57600061178684610d99565b9050600073ffffffffffffffffffffffffffffffffffffffff168373ffffffffffffffffffffffffffffffffffffffff16141580156117f157508273ffffffffffffffffffffffffffffffffffffffff168173ffffffffffffffffffffffffffffffffffffffff1614155b801561180457506118028184610ba9565b155b1561184657826040517fa9fbf51f00000000000000000000000000000000000000000000000000000000815260040161183d9190611ecb565b60405180910390fd5b81156118a857838573ffffffffffffffffffffffffffffffffffffffff168273ffffffffffffffffffffffffffffffffffffffff167f8c5be1e5ebec7d5bd14f71427d1e84f3dd0314c0f7b2291e5b200ac8c7c3b92560405160405180910390a45b505b836004600085815260200190815260200160002060006101000a81548173ffffffffffffffffffffffffffffffffffffffff021916908373ffffffffffffffffffffffffffffffffffffffff16021790555050505050565b61190d838383611b6a565b6119c157600073ffffffffffffffffffffffffffffffffffffffff168373ffffffffffffffffffffffffffffffffffffffff160361198257806040517f7e27328900000000000000000000000000000000000000000000000000000000815260040161197991906120ae565b60405180910390fd5b81816040517f177e802f0000000000000000000000000000000000000000000000000000000081526004016119b8929190612665565b60405180910390fd5b505050565b6119d082826107c3565b611a135780826040517fe2517d3f000000000000000000000000000000000000000000000000000000008152600401611a0a92919061268e565b60405180910390fd5b5050565b600080600090507a184f03e93ff9f4daa797ed6e38ed64bf6a1f0100000000000000008310611a75577a184f03e93ff9f4daa797ed6e38ed64bf6a1f0100000000000000008381611a6b57611a6a612636565b5b0492506040810190505b6d04ee2d6d415b85acef81000000008310611ab2576d04ee2d6d415b85acef81000000008381611aa857611aa7612636565b5b0492506020810190505b662386f26fc100008310611ae157662386f26fc100008381611ad757611ad6612636565b5b0492506010810190505b6305f5e1008310611b0a576305f5e1008381611b0057611aff612636565b5b0492506008810190505b6127108310611b2f576127108381611b2557611b24612636565b5b0492506004810190505b60648310611b525760648381611b4857611b47612636565b5b0492506002810190505b600a8310611b61576001810190505b80915050919050565b60008073ffffffffffffffffffffffffffffffffffffffff168373ffffffffffffffffffffffffffffffffffffffff1614158015611c2257508273ffffffffffffffffffffffffffffffffffffffff168473ffffffffffffffffffffffffffffffffffffffff161480611be35750611be28484610ba9565b5b80611c2157508273ffffffffffffffffffffffffffffffffffffffff16611c0983610e21565b73ffffffffffffffffffffffffffffffffffffffff16145b5b90509392505050565b6040518060c0016040528060008152602001600060ff16815260200160608152602001600073ffffffffffffffffffffffffffffffffffffffff168152602001600073ffffffffffffffffffffffffffffffffffffffff168152602001600073ffffffffffffffffffffffffffffffffffffffff1681525090565b6000604051905090565b600080fd5b600080fd5b60007fffffffff0000000000000000000000000000000000000000000000000000000082169050919050565b611cef81611cba565b8114611cfa57600080fd5b50565b600081359050611d0c81611ce6565b92915050565b600060208284031215611d2857611d27611cb0565b5b6000611d3684828501611cfd565b91505092915050565b60008115159050919050565b611d5481611d3f565b82525050565b6000602082019050611d6f6000830184611d4b565b92915050565b600081519050919050565b600082825260208201905092915050565b60005b83811015611daf578082015181840152602081019050611d94565b60008484015250505050565b6000601f19601f8301169050919050565b6000611dd782611d75565b611de18185611d80565b9350611df1818560208601611d91565b611dfa81611dbb565b840191505092915050565b60006020820190508181036000830152611e1f8184611dcc565b905092915050565b6000819050919050565b611e3a81611e27565b8114611e4557600080fd5b50565b600081359050611e5781611e31565b92915050565b600060208284031215611e7357611e72611cb0565b5b6000611e8184828501611e48565b91505092915050565b600073ffffffffffffffffffffffffffffffffffffffff82169050919050565b6000611eb582611e8a565b9050919050565b611ec581611eaa565b82525050565b6000602082019050611ee06000830184611ebc565b92915050565b611eef81611eaa565b8114611efa57600080fd5b50565b600081359050611f0c81611ee6565b92915050565b60008060408385031215611f2957611f28611cb0565b5b6000611f3785828601611efd565b9250506020611f4885828601611e48565b9150509250929050565b600080600060608486031215611f6b57611f6a611cb0565b5b6000611f7986828701611efd565b9350506020611f8a86828701611efd565b9250506040611f9b86828701611e48565b9150509250925092565b6000819050919050565b611fb881611fa5565b8114611fc357600080fd5b50565b600081359050611fd581611faf565b92915050565b600060208284031215611ff157611ff0611cb0565b5b6000611fff84828501611fc6565b91505092915050565b61201181611fa5565b82525050565b600060208201905061202c6000830184612008565b92915050565b6000806040838503121561204957612048611cb0565b5b600061205785828601611fc6565b925050602061206885828601611efd565b9150509250929050565b60006020828403121561208857612087611cb0565b5b600061209684828501611efd565b91505092915050565b6120a881611e27565b82525050565b60006020820190506120c3600083018461209f565b92915050565b6120d281611d3f565b81146120dd57600080fd5b50565b6000813590506120ef816120c9565b92915050565b6000806040838503121561210c5761210b611cb0565b5b600061211a85828601611efd565b925050602061212b858286016120e0565b9150509250929050565b600080fd5b600080fd5b7f4e487b7100000000000000000000000000000000000000000000000000000000600052604160045260246000fd5b61217782611dbb565b810181811067ffffffffffffffff821117156121965761219561213f565b5b80604052505050565b60006121a9611ca6565b90506121b5828261216e565b919050565b600067ffffffffffffffff8211156121d5576121d461213f565b5b6121de82611dbb565b9050602081019050919050565b82818337600083830152505050565b600061220d612208846121ba565b61219f565b9050828152602081018484840111156122295761222861213a565b5b6122348482856121eb565b509392505050565b600082601f83011261225157612250612135565b5b81356122618482602086016121fa565b91505092915050565b6000806000806080858703121561228457612283611cb0565b5b600061229287828801611efd565b94505060206122a387828801611efd565b93505060406122b487828801611e48565b925050606085013567ffffffffffffffff8111156122d5576122d4611cb5565b5b6122e18782880161223c565b91505092959194509250565b6122f681611e27565b82525050565b600060ff82169050919050565b612312816122fc565b82525050565b600082825260208201905092915050565b600061233482611d75565b61233e8185612318565b935061234e818560208601611d91565b61235781611dbb565b840191505092915050565b61236b81611eaa565b82525050565b600060c08301600083015161238960008601826122ed565b50602083015161239c6020860182612309565b50604083015184820360408601526123b48282612329565b91505060608301516123c96060860182612362565b5060808301516123dc6080860182612362565b5060a08301516123ef60a0860182612362565b508091505092915050565b600060208201905081810360008301526124148184612371565b905092915050565b6000806040838503121561243357612432611cb0565b5b600061244185828601611efd565b925050602061245285828601611efd565b9150509250929050565b7f4e487b7100000000000000000000000000000000000000000000000000000000600052602260045260246000fd5b600060028204905060018216806124a357607f821691505b6020821081036124b6576124b561245c565b5b50919050565b60006060820190506124d16000830186611ebc565b6124de602083018561209f565b6124eb6040830184611ebc565b949350505050565b600081905092915050565b600061250982611d75565b61251381856124f3565b9350612523818560208601611d91565b80840191505092915050565b600061253b82856124fe565b915061254782846124fe565b91508190509392505050565b600081519050919050565b600082825260208201905092915050565b600061257a82612553565b612584818561255e565b9350612594818560208601611d91565b61259d81611dbb565b840191505092915050565b60006080820190506125bd6000830187611ebc565b6125ca6020830186611ebc565b6125d7604083018561209f565b81810360608301526125e9818461256f565b905095945050505050565b60008151905061260381611ce6565b92915050565b60006020828403121561261f5761261e611cb0565b5b600061262d848285016125f4565b91505092915050565b7f4e487b7100000000000000000000000000000000000000000000000000000000600052601260045260246000fd5b600060408201905061267a6000830185611ebc565b612687602083018461209f565b9392505050565b60006040820190506126a36000830185611ebc565b6126b06020830184612008565b939250505056fea26469706673582212201afc653d60c47114930751645423bb59d617cefe41a6ddf69f76962b2934969064736f6c63430008180033a264697066735822122081c713c823455a7fce2e48feffb010c196d8b05d697d627877fa20f1449658ef64736f6c63430008180033",
  "linkReferences": {},
  "deployedLinkReferences": {}
}