{
  "_format": "hh-sol-artifact-1",
  "contractName": "InvoiceFactory",
  "sourceName": "contracts/InvoiceFactory.sol",
  "abi": [
    {
      "inputs": [
        {
          "internalType": "address",
          "name": "add",
          "type": "address"
        }
      ],
      "stateMutability": "nonpayable",
      "type": "constructor"
    },
    {
      "inputs": [],
      "name": "AccessControlBadConfirmation",
      "type": "error"
    },
    {
      "inputs": [
        {
          "internalType": "address",
          "name": "account",
          "type": "address"
        },
        {
          "internalType": "bytes32",
          "name": "neededRole",
          "type": "bytes32"
        }
      ],
      "name": "AccessControlUnauthorizedAccount",
      "type": "error"
    },
    {
      "anonymous": false,
      "inputs": [
        {
          "indexed": true,
          "internalType": "bytes32",
          "name": "role",
          "type": "bytes32"
        },
        {
          "indexed": true,
          "internalType": "bytes32",
          "name": "previousAdminRole",
          "type": "bytes32"
        },
        {
          "indexed": true,
          "internalType": "bytes32",
          "name": "newAdminRole",
          "type": "bytes32"
        }
      ],
      "name": "RoleAdminChanged",
      "type": "event"
    },
    {
      "anonymous": false,
      "inputs": [
        {
          "indexed": true,
          "internalType": "bytes32",
          "name": "role",
          "type": "bytes32"
        },
        {
          "indexed": true,
          "internalType": "address",
          "name": "account",
          "type": "address"
        },
        {
          "indexed": true,
          "internalType": "address",
          "name": "sender",
          "type": "address"
        }
      ],
      "name": "RoleGranted",
      "type": "event"
    },
    {
      "anonymous": false,
      "inputs": [
        {
          "indexed": true,
          "internalType": "bytes32",
          "name": "role",
          "type": "bytes32"
        },
        {
          "indexed": true,
          "internalType": "address",
          "name": "account",
          "type": "address"
        },
        {
          "indexed": true,
          "internalType": "address",
          "name": "sender",
          "type": "address"
        }
      ],
      "name": "RoleRevoked",
      "type": "event"
    },
    {
      "inputs": [],
      "name": "DEFAULT_ADMIN_ROLE",
      "outputs": [
        {
          "internalType": "bytes32",
          "name": "",
          "type": "bytes32"
        }
      ],
      "stateMutability": "view",
      "type": "function"
    },
    {
      "inputs": [
        {
          "components": [
            {
              "internalType": "uint256",
              "name": "amount",
              "type": "uint256"
            },
            {
              "internalType": "uint8",
              "name": "status",
              "type": "uint8"
            },
            {
              "internalType": "string",
              "name": "timestamp",
              "type": "string"
            },
            {
              "internalType": "address",
              "name": "transactionHash",
              "type": "address"
            },
            {
              "internalType": "address",
              "name": "customer",
              "type": "address"
            },
            {
              "internalType": "address",
              "name": "seller",
              "type": "address"
            }
          ],
          "internalType": "struct BillDefinition.Bill",
          "name": "bill",
          "type": "tuple"
        }
      ],
      "name": "createInvoice",
      "outputs": [],
      "stateMutability": "nonpayable",
      "type": "function"
    },
    {
      "inputs": [
        {
          "internalType": "uint256",
          "name": "",
          "type": "uint256"
        }
      ],
      "name": "deployedInvoice",
      "outputs": [
        {
          "internalType": "address",
          "name": "",
          "type": "address"
        }
      ],
      "stateMutability": "view",
      "type": "function"
    },
    {
      "inputs": [],
      "name": "getDeployedInvoice",
      "outputs": [
        {
          "internalType": "address[]",
          "name": "",
          "type": "address[]"
        }
      ],
      "stateMutability": "view",
      "type": "function"
    },
    {
      "inputs": [
        {
          "internalType": "bytes32",
          "name": "role",
          "type": "bytes32"
        }
      ],
      "name": "getRoleAdmin",
      "outputs": [
        {
          "internalType": "bytes32",
          "name": "",
          "type": "bytes32"
        }
      ],
      "stateMutability": "view",
      "type": "function"
    },
    {
      "inputs": [
        {
          "internalType": "bytes32",
          "name": "role",
          "type": "bytes32"
        },
        {
          "internalType": "address",
          "name": "account",
          "type": "address"
        }
      ],
      "name": "grantRole",
      "outputs": [],
      "stateMutability": "nonpayable",
      "type": "function"
    },
    {
      "inputs": [
        {
          "internalType": "bytes32",
          "name": "role",
          "type": "bytes32"
        },
        {
          "internalType": "address",
          "name": "account",
          "type": "address"
        }
      ],
      "name": "hasRole",
      "outputs": [
        {
          "internalType": "bool",
          "name": "",
          "type": "bool"
        }
      ],
      "stateMutability": "view",
      "type": "function"
    },
    {
      "inputs": [
        {
          "internalType": "bytes32",
          "name": "role",
          "type": "bytes32"
        },
        {
          "internalType": "address",
          "name": "callerConfirmation",
          "type": "address"
        }
      ],
      "name": "renounceRole",
      "outputs": [],
      "stateMutability": "nonpayable",
      "type": "function"
    },
    {
      "inputs": [
        {
          "internalType": "bytes32",
          "name": "role",
          "type": "bytes32"
        },
        {
          "internalType": "address",
          "name": "account",
          "type": "address"
        }
      ],
      "name": "revokeRole",
      "outputs": [],
      "stateMutability": "nonpayable",
      "type": "function"
    },
    {
      "inputs": [
        {
          "internalType": "bytes4",
          "name": "interfaceId",
          "type": "bytes4"
        }
      ],
      "name": "supportsInterface",
      "outputs": [
        {
          "internalType": "bool",
          "name": "",
          "type": "bool"
        }
      ],
      "stateMutability": "view",
      "type": "function"
    }
  ],
  "bytecode": "0x608060405273c6a2907273ab4157eb8594f471cb24f89af71d3d600160006101000a81548173ffffffffffffffffffffffffffffffffffffffff021916908373ffffffffffffffffffffffffffffffffffffffff1602179055503480156200006657600080fd5b50604051620045d1380380620045d183398181016040528101906200008c9190620002eb565b80600160006101000a81548173ffffffffffffffffffffffffffffffffffffffff021916908373ffffffffffffffffffffffffffffffffffffffff160217905550620001046000801b600160009054906101000a900473ffffffffffffffffffffffffffffffffffffffff166200010c60201b60201c565b50506200031d565b60006200012083836200020f60201b60201c565b6200020457600160008085815260200190815260200160002060000160008473ffffffffffffffffffffffffffffffffffffffff1673ffffffffffffffffffffffffffffffffffffffff16815260200190815260200160002060006101000a81548160ff021916908315150217905550620001a06200027960201b60201c565b73ffffffffffffffffffffffffffffffffffffffff168273ffffffffffffffffffffffffffffffffffffffff16847f2f8788117e7eff1d82e926ec794901d17c78024a50270940304540a733656f0d60405160405180910390a46001905062000209565b600090505b92915050565b600080600084815260200190815260200160002060000160008373ffffffffffffffffffffffffffffffffffffffff1673ffffffffffffffffffffffffffffffffffffffff16815260200190815260200160002060009054906101000a900460ff16905092915050565b600033905090565b600080fd5b600073ffffffffffffffffffffffffffffffffffffffff82169050919050565b6000620002b38262000286565b9050919050565b620002c581620002a6565b8114620002d157600080fd5b50565b600081519050620002e581620002ba565b92915050565b60006020828403121562000304576200030362000281565b5b60006200031484828501620002d4565b91505092915050565b6142a4806200032d6000396000f3fe60806040523480156200001157600080fd5b5060043610620000ac5760003560e01c8063586a99a5116200006f578063586a99a5146200017f5780636066825a14620001b557806391d1485414620001d5578063a217fddf146200020b578063d547741f146200022d57620000ac565b806301ffc9a714620000b157806323e2900f14620000e7578063248a9ca314620001095780632f2ff15d146200013f57806336568abe146200015f575b600080fd5b620000cf6004803603810190620000c99190620008fc565b6200024d565b604051620000de91906200094b565b60405180910390f35b620000f1620002ca565b60405162000100919062000a6a565b60405180910390f35b62000127600480360381019062000121919062000ac9565b6200035a565b60405162000136919062000b0c565b60405180910390f35b6200015d600480360381019062000157919062000b5a565b62000379565b005b6200017d600480360381019062000177919062000b5a565b620003a1565b005b6200019d600480360381019062000197919062000bdc565b62000421565b604051620001ac919062000c1f565b60405180910390f35b620001d36004803603810190620001cd919062000eb6565b62000461565b005b620001f36004803603810190620001ed919062000b5a565b62000515565b6040516200020291906200094b565b60405180910390f35b620002156200057f565b60405162000224919062000b0c565b60405180910390f35b6200024b600480360381019062000245919062000b5a565b62000586565b005b60007f7965db0b000000000000000000000000000000000000000000000000000000007bffffffffffffffffffffffffffffffffffffffffffffffffffffffff1916827bffffffffffffffffffffffffffffffffffffffffffffffffffffffff19161480620002c35750620002c282620005ae565b5b9050919050565b606060028054806020026020016040519081016040528092919081815260200182805480156200035057602002820191906000526020600020905b8160009054906101000a900473ffffffffffffffffffffffffffffffffffffffff1673ffffffffffffffffffffffffffffffffffffffff168152602001906001019080831162000305575b5050505050905090565b6000806000838152602001908152602001600020600101549050919050565b62000384826200035a565b6200038f8162000618565b6200039b838362000630565b50505050565b620003ab62000727565b73ffffffffffffffffffffffffffffffffffffffff168173ffffffffffffffffffffffffffffffffffffffff161462000410576040517f6697b23200000000000000000000000000000000000000000000000000000000815260040160405180910390fd5b6200041c82826200072f565b505050565b600281815481106200043257600080fd5b906000526020600020016000915054906101000a900473ffffffffffffffffffffffffffffffffffffffff1681565b6000801b620004708162000618565b60008260405162000481906200087d565b6200048d919062001047565b604051809103906000f080158015620004aa573d6000803e3d6000fd5b5090506002819080600181540180825580915050600190039060005260206000200160009091909190916101000a81548173ffffffffffffffffffffffffffffffffffffffff021916908373ffffffffffffffffffffffffffffffffffffffff160217905550505050565b600080600084815260200190815260200160002060000160008373ffffffffffffffffffffffffffffffffffffffff1673ffffffffffffffffffffffffffffffffffffffff16815260200190815260200160002060009054906101000a900460ff16905092915050565b6000801b81565b62000591826200035a565b6200059c8162000618565b620005a883836200072f565b50505050565b60007f01ffc9a7000000000000000000000000000000000000000000000000000000007bffffffffffffffffffffffffffffffffffffffffffffffffffffffff1916827bffffffffffffffffffffffffffffffffffffffffffffffffffffffff1916149050919050565b6200062d816200062762000727565b62000827565b50565b60006200063e838362000515565b6200071c57600160008085815260200190815260200160002060000160008473ffffffffffffffffffffffffffffffffffffffff1673ffffffffffffffffffffffffffffffffffffffff16815260200190815260200160002060006101000a81548160ff021916908315150217905550620006b862000727565b73ffffffffffffffffffffffffffffffffffffffff168273ffffffffffffffffffffffffffffffffffffffff16847f2f8788117e7eff1d82e926ec794901d17c78024a50270940304540a733656f0d60405160405180910390a46001905062000721565b600090505b92915050565b600033905090565b60006200073d838362000515565b156200081c57600080600085815260200190815260200160002060000160008473ffffffffffffffffffffffffffffffffffffffff1673ffffffffffffffffffffffffffffffffffffffff16815260200190815260200160002060006101000a81548160ff021916908315150217905550620007b862000727565b73ffffffffffffffffffffffffffffffffffffffff168273ffffffffffffffffffffffffffffffffffffffff16847ff6391f5c32d9c69d2a47ea670b442974b53935d1edc7fd64eb21e047a839171b60405160405180910390a46001905062000821565b600090505b92915050565b62000833828262000515565b620008795780826040517fe2517d3f000000000000000000000000000000000000000000000000000000008152600401620008709291906200106b565b60405180910390fd5b5050565b6131d6806200109983390190565b6000604051905090565b600080fd5b600080fd5b60007fffffffff0000000000000000000000000000000000000000000000000000000082169050919050565b620008d6816200089f565b8114620008e257600080fd5b50565b600081359050620008f681620008cb565b92915050565b60006020828403121562000915576200091462000895565b5b60006200092584828501620008e5565b91505092915050565b60008115159050919050565b62000945816200092e565b82525050565b60006020820190506200096260008301846200093a565b92915050565b600081519050919050565b600082825260208201905092915050565b6000819050602082019050919050565b600073ffffffffffffffffffffffffffffffffffffffff82169050919050565b6000620009c18262000994565b9050919050565b620009d381620009b4565b82525050565b6000620009e78383620009c8565b60208301905092915050565b6000602082019050919050565b600062000a0d8262000968565b62000a19818562000973565b935062000a268362000984565b8060005b8381101562000a5d57815162000a418882620009d9565b975062000a4e83620009f3565b92505060018101905062000a2a565b5085935050505092915050565b6000602082019050818103600083015262000a86818462000a00565b905092915050565b6000819050919050565b62000aa38162000a8e565b811462000aaf57600080fd5b50565b60008135905062000ac38162000a98565b92915050565b60006020828403121562000ae25762000ae162000895565b5b600062000af28482850162000ab2565b91505092915050565b62000b068162000a8e565b82525050565b600060208201905062000b23600083018462000afb565b92915050565b62000b3481620009b4565b811462000b4057600080fd5b50565b60008135905062000b548162000b29565b92915050565b6000806040838503121562000b745762000b7362000895565b5b600062000b848582860162000ab2565b925050602062000b978582860162000b43565b9150509250929050565b6000819050919050565b62000bb68162000ba1565b811462000bc257600080fd5b50565b60008135905062000bd68162000bab565b92915050565b60006020828403121562000bf55762000bf462000895565b5b600062000c058482850162000bc5565b91505092915050565b62000c1981620009b4565b82525050565b600060208201905062000c36600083018462000c0e565b92915050565b600080fd5b6000601f19601f8301169050919050565b7f4e487b7100000000000000000000000000000000000000000000000000000000600052604160045260246000fd5b62000c8c8262000c41565b810181811067ffffffffffffffff8211171562000cae5762000cad62000c52565b5b80604052505050565b600062000cc36200088b565b905062000cd1828262000c81565b919050565b600080fd5b600060ff82169050919050565b62000cf38162000cdb565b811462000cff57600080fd5b50565b60008135905062000d138162000ce8565b92915050565b600080fd5b600080fd5b600067ffffffffffffffff82111562000d415762000d4062000c52565b5b62000d4c8262000c41565b9050602081019050919050565b82818337600083830152505050565b600062000d7f62000d798462000d23565b62000cb7565b90508281526020810184848401111562000d9e5762000d9d62000d1e565b5b62000dab84828562000d59565b509392505050565b600082601f83011262000dcb5762000dca62000d19565b5b813562000ddd84826020860162000d68565b91505092915050565b600060c0828403121562000dff5762000dfe62000c3c565b5b62000e0b60c062000cb7565b9050600062000e1d8482850162000bc5565b600083015250602062000e338482850162000d02565b602083015250604082013567ffffffffffffffff81111562000e5a5762000e5962000cd6565b5b62000e688482850162000db3565b604083015250606062000e7e8482850162000b43565b606083015250608062000e948482850162000b43565b60808301525060a062000eaa8482850162000b43565b60a08301525092915050565b60006020828403121562000ecf5762000ece62000895565b5b600082013567ffffffffffffffff81111562000ef05762000eef6200089a565b5b62000efe8482850162000de6565b91505092915050565b62000f128162000ba1565b82525050565b62000f238162000cdb565b82525050565b600081519050919050565b600082825260208201905092915050565b60005b8381101562000f6557808201518184015260208101905062000f48565b60008484015250505050565b600062000f7e8262000f29565b62000f8a818562000f34565b935062000f9c81856020860162000f45565b62000fa78162000c41565b840191505092915050565b600060c08301600083015162000fcc600086018262000f07565b50602083015162000fe1602086018262000f18565b506040830151848203604086015262000ffb828262000f71565b9150506060830151620010126060860182620009c8565b506080830151620010276080860182620009c8565b5060a08301516200103c60a0860182620009c8565b508091505092915050565b6000602082019050818103600083015262001063818462000fb2565b905092915050565b600060408201905062001082600083018562000c0e565b62001091602083018462000afb565b939250505056fe60806040523480156200001157600080fd5b50604051620031d6380380620031d6833981810160405281019062000037919062000760565b6040518060400160405280600781526020017f496e766f696365000000000000000000000000000000000000000000000000008152506040518060400160405280600481526020017f42494c4c000000000000000000000000000000000000000000000000000000008152508160009081620000b49190620009f2565b508060019081620000c69190620009f2565b5050508060076000820151816000015560208201518160010160006101000a81548160ff021916908360ff16021790555060408201518160020190816200010e9190620009f2565b5060608201518160030160006101000a81548173ffffffffffffffffffffffffffffffffffffffff021916908373ffffffffffffffffffffffffffffffffffffffff16021790555060808201518160040160006101000a81548173ffffffffffffffffffffffffffffffffffffffff021916908373ffffffffffffffffffffffffffffffffffffffff16021790555060a08201518160050160006101000a81548173ffffffffffffffffffffffffffffffffffffffff021916908373ffffffffffffffffffffffffffffffffffffffff1602179055509050506200023e7ffb338459882b624b9125c4cef6045cf2f3a5452b39abbaf54c2e5c45fcfb5942600760040160009054906101000a900473ffffffffffffffffffffffffffffffffffffffff166200029e60201b60201c565b50620002967ffb338459882b624b9125c4cef6045cf2f3a5452b39abbaf54c2e5c45fcfb5942600760050160009054906101000a900473ffffffffffffffffffffffffffffffffffffffff166200029e60201b60201c565b505062000ad9565b6000620002b28383620003a260201b60201c565b620003975760016006600085815260200190815260200160002060000160008473ffffffffffffffffffffffffffffffffffffffff1673ffffffffffffffffffffffffffffffffffffffff16815260200190815260200160002060006101000a81548160ff021916908315150217905550620003336200040d60201b60201c565b73ffffffffffffffffffffffffffffffffffffffff168273ffffffffffffffffffffffffffffffffffffffff16847f2f8788117e7eff1d82e926ec794901d17c78024a50270940304540a733656f0d60405160405180910390a4600190506200039c565b600090505b92915050565b60006006600084815260200190815260200160002060000160008373ffffffffffffffffffffffffffffffffffffffff1673ffffffffffffffffffffffffffffffffffffffff16815260200190815260200160002060009054906101000a900460ff16905092915050565b600033905090565b6000604051905090565b600080fd5b600080fd5b600080fd5b6000601f19601f8301169050919050565b7f4e487b7100000000000000000000000000000000000000000000000000000000600052604160045260246000fd5b62000479826200042e565b810181811067ffffffffffffffff821117156200049b576200049a6200043f565b5b80604052505050565b6000620004b062000415565b9050620004be82826200046e565b919050565b600080fd5b6000819050919050565b620004dd81620004c8565b8114620004e957600080fd5b50565b600081519050620004fd81620004d2565b92915050565b600060ff82169050919050565b6200051b8162000503565b81146200052757600080fd5b50565b6000815190506200053b8162000510565b92915050565b600080fd5b600080fd5b600067ffffffffffffffff8211156200056957620005686200043f565b5b62000574826200042e565b9050602081019050919050565b60005b83811015620005a157808201518184015260208101905062000584565b60008484015250505050565b6000620005c4620005be846200054b565b620004a4565b905082815260208101848484011115620005e357620005e262000546565b5b620005f084828562000581565b509392505050565b600082601f83011262000610576200060f62000541565b5b815162000622848260208601620005ad565b91505092915050565b600073ffffffffffffffffffffffffffffffffffffffff82169050919050565b600062000658826200062b565b9050919050565b6200066a816200064b565b81146200067657600080fd5b50565b6000815190506200068a816200065f565b92915050565b600060c08284031215620006a957620006a862000429565b5b620006b560c0620004a4565b90506000620006c784828501620004ec565b6000830152506020620006dd848285016200052a565b602083015250604082015167ffffffffffffffff811115620007045762000703620004c3565b5b6200071284828501620005f8565b6040830152506060620007288482850162000679565b60608301525060806200073e8482850162000679565b60808301525060a0620007548482850162000679565b60a08301525092915050565b6000602082840312156200077957620007786200041f565b5b600082015167ffffffffffffffff8111156200079a576200079962000424565b5b620007a88482850162000690565b91505092915050565b600081519050919050565b7f4e487b7100000000000000000000000000000000000000000000000000000000600052602260045260246000fd5b600060028204905060018216806200080457607f821691505b6020821081036200081a5762000819620007bc565b5b50919050565b60008190508160005260206000209050919050565b60006020601f8301049050919050565b600082821b905092915050565b600060088302620008847fffffffffffffffffffffffffffffffffffffffffffffffffffffffffffffffff8262000845565b62000890868362000845565b95508019841693508086168417925050509392505050565b6000819050919050565b6000620008d3620008cd620008c784620004c8565b620008a8565b620004c8565b9050919050565b6000819050919050565b620008ef83620008b2565b62000907620008fe82620008da565b84845462000852565b825550505050565b600090565b6200091e6200090f565b6200092b818484620008e4565b505050565b5b8181101562000953576200094760008262000914565b60018101905062000931565b5050565b601f821115620009a2576200096c8162000820565b620009778462000835565b8101602085101562000987578190505b6200099f620009968562000835565b83018262000930565b50505b505050565b600082821c905092915050565b6000620009c760001984600802620009a7565b1980831691505092915050565b6000620009e28383620009b4565b9150826002028217905092915050565b620009fd82620007b1565b67ffffffffffffffff81111562000a195762000a186200043f565b5b62000a258254620007eb565b62000a3282828562000957565b600060209050601f83116001811462000a6a576000841562000a55578287015190505b62000a618582620009d4565b86555062000ad1565b601f19841662000a7a8662000820565b60005b8281101562000aa45784890151825560018201915060208501945060208101905062000a7d565b8683101562000ac4578489015162000ac0601f891682620009b4565b8355505b6001600288020188555050505b505050505050565b6126ed8062000ae96000396000f3fe608060405234801561001057600080fd5b50600436106101375760003560e01c806370a08231116100b8578063b88d4fde1161007c578063b88d4fde1461035e578063bbbbaaad1461037a578063c87b56dd14610398578063d547741f146103c8578063e2f8b619146103e4578063e985e9c51461040257610137565b806370a08231146102a657806391d14854146102d657806395d89b4114610306578063a217fddf14610324578063a22cb4651461034257610137565b8063248a9ca3116100ff578063248a9ca3146101f25780632f2ff15d1461022257806336568abe1461023e57806342842e0e1461025a5780636352211e1461027657610137565b806301ffc9a71461013c57806306fdde031461016c578063081812fc1461018a578063095ea7b3146101ba57806323b872dd146101d6575b600080fd5b61015660048036038101906101519190611d12565b610432565b6040516101639190611d5a565b60405180910390f35b610174610454565b6040516101819190611e05565b60405180910390f35b6101a4600480360381019061019f9190611e5d565b6104e6565b6040516101b19190611ecb565b60405180910390f35b6101d460048036038101906101cf9190611f12565b610502565b005b6101f060048036038101906101eb9190611f52565b610518565b005b61020c60048036038101906102079190611fdb565b61061a565b6040516102199190612017565b60405180910390f35b61023c60048036038101906102379190612032565b61063a565b005b61025860048036038101906102539190612032565b61065c565b005b610274600480360381019061026f9190611f52565b6106d7565b005b610290600480360381019061028b9190611e5d565b6106f7565b60405161029d9190611ecb565b60405180910390f35b6102c060048036038101906102bb9190612072565b610709565b6040516102cd91906120ae565b60405180910390f35b6102f060048036038101906102eb9190612032565b6107c3565b6040516102fd9190611d5a565b60405180910390f35b61030e61082e565b60405161031b9190611e05565b60405180910390f35b61032c6108c0565b6040516103399190612017565b60405180910390f35b61035c600480360381019061035791906120f5565b6108c7565b005b6103786004803603810190610373919061226a565b6108dd565b005b6103826108fa565b60405161038f9190612017565b60405180910390f35b6103b260048036038101906103ad9190611e5d565b61091e565b6040516103bf9190611e05565b60405180910390f35b6103e260048036038101906103dd9190612032565b610987565b005b6103ec6109a9565b6040516103f991906123fa565b60405180910390f35b61041c6004803603810190610417919061241c565b610ba9565b6040516104299190611d5a565b60405180910390f35b600061043d82610c3d565b8061044d575061044c82610d1f565b5b9050919050565b6060600080546104639061248b565b80601f016020809104026020016040519081016040528092919081815260200182805461048f9061248b565b80156104dc5780601f106104b1576101008083540402835291602001916104dc565b820191906000526020600020905b8154815290600101906020018083116104bf57829003601f168201915b5050505050905090565b60006104f182610d99565b506104fb82610e21565b9050919050565b610514828261050f610e5e565b610e66565b5050565b600073ffffffffffffffffffffffffffffffffffffffff168273ffffffffffffffffffffffffffffffffffffffff160361058a5760006040517f64a0ae920000000000000000000000000000000000000000000000000000000081526004016105819190611ecb565b60405180910390fd5b600061059e8383610599610e5e565b610e78565b90508373ffffffffffffffffffffffffffffffffffffffff168173ffffffffffffffffffffffffffffffffffffffff1614610614578382826040517f64283d7b00000000000000000000000000000000000000000000000000000000815260040161060b939291906124bc565b60405180910390fd5b50505050565b600060066000838152602001908152602001600020600101549050919050565b6106438261061a565b61064c81611092565b61065683836110a6565b50505050565b610664610e5e565b73ffffffffffffffffffffffffffffffffffffffff168173ffffffffffffffffffffffffffffffffffffffff16146106c8576040517f6697b23200000000000000000000000000000000000000000000000000000000815260040160405180910390fd5b6106d28282611198565b505050565b6106f2838383604051806020016040528060008152506108dd565b505050565b600061070282610d99565b9050919050565b60008073ffffffffffffffffffffffffffffffffffffffff168273ffffffffffffffffffffffffffffffffffffffff160361077c5760006040517f89c62b640000000000000000000000000000000000000000000000000000000081526004016107739190611ecb565b60405180910390fd5b600360008373ffffffffffffffffffffffffffffffffffffffff1673ffffffffffffffffffffffffffffffffffffffff168152602001908152602001600020549050919050565b60006006600084815260200190815260200160002060000160008373ffffffffffffffffffffffffffffffffffffffff1673ffffffffffffffffffffffffffffffffffffffff16815260200190815260200160002060009054906101000a900460ff16905092915050565b60606001805461083d9061248b565b80601f01602080910402602001604051908101604052809291908181526020018280546108699061248b565b80156108b65780601f1061088b576101008083540402835291602001916108b6565b820191906000526020600020905b81548152906001019060200180831161089957829003601f168201915b5050505050905090565b6000801b81565b6108d96108d2610e5e565b838361128b565b5050565b6108e8848484610518565b6108f4848484846113fa565b50505050565b7ffb338459882b624b9125c4cef6045cf2f3a5452b39abbaf54c2e5c45fcfb594281565b606061092982610d99565b5060006109346115b1565b90506000815111610954576040518060200160405280600081525061097f565b8061095e846115c8565b60405160200161096f92919061252f565b6040516020818303038152906040525b915050919050565b6109908261061a565b61099981611092565b6109a38383611198565b50505050565b6109b1611c2b565b7ffb338459882b624b9125c4cef6045cf2f3a5452b39abbaf54c2e5c45fcfb59426109db81611092565b60076040518060c0016040529081600082015481526020016001820160009054906101000a900460ff1660ff1660ff168152602001600282018054610a1f9061248b565b80601f0160208091040260200160405190810160405280929190818152602001828054610a4b9061248b565b8015610a985780601f10610a6d57610100808354040283529160200191610a98565b820191906000526020600020905b815481529060010190602001808311610a7b57829003601f168201915b505050505081526020016003820160009054906101000a900473ffffffffffffffffffffffffffffffffffffffff1673ffffffffffffffffffffffffffffffffffffffff1673ffffffffffffffffffffffffffffffffffffffff1681526020016004820160009054906101000a900473ffffffffffffffffffffffffffffffffffffffff1673ffffffffffffffffffffffffffffffffffffffff1673ffffffffffffffffffffffffffffffffffffffff1681526020016005820160009054906101000a900473ffffffffffffffffffffffffffffffffffffffff1673ffffffffffffffffffffffffffffffffffffffff1673ffffffffffffffffffffffffffffffffffffffff168152505091505090565b6000600560008473ffffffffffffffffffffffffffffffffffffffff1673ffffffffffffffffffffffffffffffffffffffff16815260200190815260200160002060008373ffffffffffffffffffffffffffffffffffffffff1673ffffffffffffffffffffffffffffffffffffffff16815260200190815260200160002060009054906101000a900460ff16905092915050565b60007f80ac58cd000000000000000000000000000000000000000000000000000000007bffffffffffffffffffffffffffffffffffffffffffffffffffffffff1916827bffffffffffffffffffffffffffffffffffffffffffffffffffffffff19161480610d0857507f5b5e139f000000000000000000000000000000000000000000000000000000007bffffffffffffffffffffffffffffffffffffffffffffffffffffffff1916827bffffffffffffffffffffffffffffffffffffffffffffffffffffffff1916145b80610d185750610d1782611696565b5b9050919050565b60007f7965db0b000000000000000000000000000000000000000000000000000000007bffffffffffffffffffffffffffffffffffffffffffffffffffffffff1916827bffffffffffffffffffffffffffffffffffffffffffffffffffffffff19161480610d925750610d9182610c3d565b5b9050919050565b600080610da583611700565b9050600073ffffffffffffffffffffffffffffffffffffffff168173ffffffffffffffffffffffffffffffffffffffff1603610e1857826040517f7e273289000000000000000000000000000000000000000000000000000000008152600401610e0f91906120ae565b60405180910390fd5b80915050919050565b60006004600083815260200190815260200160002060009054906101000a900473ffffffffffffffffffffffffffffffffffffffff169050919050565b600033905090565b610e73838383600161173d565b505050565b600080610e8484611700565b9050600073ffffffffffffffffffffffffffffffffffffffff168373ffffffffffffffffffffffffffffffffffffffff1614610ec657610ec5818486611902565b5b600073ffffffffffffffffffffffffffffffffffffffff168173ffffffffffffffffffffffffffffffffffffffff1614610f5757610f0860008560008061173d565b6001600360008373ffffffffffffffffffffffffffffffffffffffff1673ffffffffffffffffffffffffffffffffffffffff168152602001908152602001600020600082825403925050819055505b600073ffffffffffffffffffffffffffffffffffffffff168573ffffffffffffffffffffffffffffffffffffffff1614610fda576001600360008773ffffffffffffffffffffffffffffffffffffffff1673ffffffffffffffffffffffffffffffffffffffff168152602001908152602001600020600082825401925050819055505b846002600086815260200190815260200160002060006101000a81548173ffffffffffffffffffffffffffffffffffffffff021916908373ffffffffffffffffffffffffffffffffffffffff160217905550838573ffffffffffffffffffffffffffffffffffffffff168273ffffffffffffffffffffffffffffffffffffffff167fddf252ad1be2c89b69c2b068fc378daa952ba7f163c4a11628f55a4df523b3ef60405160405180910390a4809150509392505050565b6110a38161109e610e5e565b6119c6565b50565b60006110b283836107c3565b61118d5760016006600085815260200190815260200160002060000160008473ffffffffffffffffffffffffffffffffffffffff1673ffffffffffffffffffffffffffffffffffffffff16815260200190815260200160002060006101000a81548160ff02191690831515021790555061112a610e5e565b73ffffffffffffffffffffffffffffffffffffffff168273ffffffffffffffffffffffffffffffffffffffff16847f2f8788117e7eff1d82e926ec794901d17c78024a50270940304540a733656f0d60405160405180910390a460019050611192565b600090505b92915050565b60006111a483836107c3565b156112805760006006600085815260200190815260200160002060000160008473ffffffffffffffffffffffffffffffffffffffff1673ffffffffffffffffffffffffffffffffffffffff16815260200190815260200160002060006101000a81548160ff02191690831515021790555061121d610e5e565b73ffffffffffffffffffffffffffffffffffffffff168273ffffffffffffffffffffffffffffffffffffffff16847ff6391f5c32d9c69d2a47ea670b442974b53935d1edc7fd64eb21e047a839171b60405160405180910390a460019050611285565b600090505b92915050565b600073ffffffffffffffffffffffffffffffffffffffff168273ffffffffffffffffffffffffffffffffffffffff16036112fc57816040517f5b08ba180000000000000000000000000000000000000000000000000000000081526004016112f39190611ecb565b60405180910390fd5b80600560008573ffffffffffffffffffffffffffffffffffffffff1673ffffffffffffffffffffffffffffffffffffffff16815260200190815260200160002060008473ffffffffffffffffffffffffffffffffffffffff1673ffffffffffffffffffffffffffffffffffffffff16815260200190815260200160002060006101000a81548160ff0219169083151502179055508173ffffffffffffffffffffffffffffffffffffffff168373ffffffffffffffffffffffffffffffffffffffff167f17307eab39ab6107e8899845ad3d59bd9653f200f220920489ca2b5937696c31836040516113ed9190611d5a565b60405180910390a3505050565b60008373ffffffffffffffffffffffffffffffffffffffff163b11156115ab578273ffffffffffffffffffffffffffffffffffffffff1663150b7a0261143e610e5e565b8685856040518563ffffffff1660e01b815260040161146094939291906125a8565b6020604051808303816000875af192505050801561149c57506040513d601f19601f820116820180604052508101906114999190612609565b60015b611520573d80600081146114cc576040519150601f19603f3d011682016040523d82523d6000602084013e6114d1565b606091505b50600081510361151857836040517f64a0ae9200000000000000000000000000000000000000000000000000000000815260040161150f9190611ecb565b60405180910390fd5b805181602001fd5b63150b7a0260e01b7bffffffffffffffffffffffffffffffffffffffffffffffffffffffff1916817bffffffffffffffffffffffffffffffffffffffffffffffffffffffff1916146115a957836040517f64a0ae920000000000000000000000000000000000000000000000000000000081526004016115a09190611ecb565b60405180910390fd5b505b50505050565b606060405180602001604052806000815250905090565b6060600060016115d784611a17565b01905060008167ffffffffffffffff8111156115f6576115f561213f565b5b6040519080825280601f01601f1916602001820160405280156116285781602001600182028036833780820191505090505b509050600082602001820190505b60011561168b578080600190039150507f3031323334353637383961626364656600000000000000000000000000000000600a86061a8153600a858161167f5761167e612636565b5b04945060008503611636575b819350505050919050565b60007f01ffc9a7000000000000000000000000000000000000000000000000000000007bffffffffffffffffffffffffffffffffffffffffffffffffffffffff1916827bffffffffffffffffffffffffffffffffffffffffffffffffffffffff1916149050919050565b60006002600083815260200190815260200160002060009054906101000a900473ffffffffffffffffffffffffffffffffffffffff169050919050565b80806117765750600073ffffffffffffffffffffffffffffffffffffffff168273ffffffffffffffffffffffffffffffffffffffff1614155b156118aa57600061178684610d99565b9050600073ffffffffffffffffffffffffffffffffffffffff168373ffffffffffffffffffffffffffffffffffffffff16141580156117f157508273ffffffffffffffffffffffffffffffffffffffff168173ffffffffffffffffffffffffffffffffffffffff1614155b801561180457506118028184610ba9565b155b1561184657826040517fa9fbf51f00000000000000000000000000000000000000000000000000000000815260040161183d9190611ecb565b60405180910390fd5b81156118a857838573ffffffffffffffffffffffffffffffffffffffff168273ffffffffffffffffffffffffffffffffffffffff167f8c5be1e5ebec7d5bd14f71427d1e84f3dd0314c0f7b2291e5b200ac8c7c3b92560405160405180910390a45b505b836004600085815260200190815260200160002060006101000a81548173ffffffffffffffffffffffffffffffffffffffff021916908373ffffffffffffffffffffffffffffffffffffffff16021790555050505050565b61190d838383611b6a565b6119c157600073ffffffffffffffffffffffffffffffffffffffff168373ffffffffffffffffffffffffffffffffffffffff160361198257806040517f7e27328900000000000000000000000000000000000000000000000000000000815260040161197991906120ae565b60405180910390fd5b81816040517f177e802f0000000000000000000000000000000000000000000000000000000081526004016119b8929190612665565b60405180910390fd5b505050565b6119d082826107c3565b611a135780826040517fe2517d3f000000000000000000000000000000000000000000000000000000008152600401611a0a92919061268e565b60405180910390fd5b5050565b600080600090507a184f03e93ff9f4daa797ed6e38ed64bf6a1f0100000000000000008310611a75577a184f03e93ff9f4daa797ed6e38ed64bf6a1f0100000000000000008381611a6b57611a6a612636565b5b0492506040810190505b6d04ee2d6d415b85acef81000000008310611ab2576d04ee2d6d415b85acef81000000008381611aa857611aa7612636565b5b0492506020810190505b662386f26fc100008310611ae157662386f26fc100008381611ad757611ad6612636565b5b0492506010810190505b6305f5e1008310611b0a576305f5e1008381611b0057611aff612636565b5b0492506008810190505b6127108310611b2f576127108381611b2557611b24612636565b5b0492506004810190505b60648310611b525760648381611b4857611b47612636565b5b0492506002810190505b600a8310611b61576001810190505b80915050919050565b60008073ffffffffffffffffffffffffffffffffffffffff168373ffffffffffffffffffffffffffffffffffffffff1614158015611c2257508273ffffffffffffffffffffffffffffffffffffffff168473ffffffffffffffffffffffffffffffffffffffff161480611be35750611be28484610ba9565b5b80611c2157508273ffffffffffffffffffffffffffffffffffffffff16611c0983610e21565b73ffffffffffffffffffffffffffffffffffffffff16145b5b90509392505050565b6040518060c0016040528060008152602001600060ff16815260200160608152602001600073ffffffffffffffffffffffffffffffffffffffff168152602001600073ffffffffffffffffffffffffffffffffffffffff168152602001600073ffffffffffffffffffffffffffffffffffffffff1681525090565b6000604051905090565b600080fd5b600080fd5b60007fffffffff0000000000000000000000000000000000000000000000000000000082169050919050565b611cef81611cba565b8114611cfa57600080fd5b50565b600081359050611d0c81611ce6565b92915050565b600060208284031215611d2857611d27611cb0565b5b6000611d3684828501611cfd565b91505092915050565b60008115159050919050565b611d5481611d3f565b82525050565b6000602082019050611d6f6000830184611d4b565b92915050565b600081519050919050565b600082825260208201905092915050565b60005b83811015611daf578082015181840152602081019050611d94565b60008484015250505050565b6000601f19601f8301169050919050565b6000611dd782611d75565b611de18185611d80565b9350611df1818560208601611d91565b611dfa81611dbb565b840191505092915050565b60006020820190508181036000830152611e1f8184611dcc565b905092915050565b6000819050919050565b611e3a81611e27565b8114611e4557600080fd5b50565b600081359050611e5781611e31565b92915050565b600060208284031215611e7357611e72611cb0565b5b6000611e8184828501611e48565b91505092915050565b600073ffffffffffffffffffffffffffffffffffffffff82169050919050565b6000611eb582611e8a565b9050919050565b611ec581611eaa565b82525050565b6000602082019050611ee06000830184611ebc565b92915050565b611eef81611eaa565b8114611efa57600080fd5b50565b600081359050611f0c81611ee6565b92915050565b60008060408385031215611f2957611f28611cb0565b5b6000611f3785828601611efd565b9250506020611f4885828601611e48565b9150509250929050565b600080600060608486031215611f6b57611f6a611cb0565b5b6000611f7986828701611efd565b9350506020611f8a86828701611efd565b9250506040611f9b86828701611e48565b9150509250925092565b6000819050919050565b611fb881611fa5565b8114611fc357600080fd5b50565b600081359050611fd581611faf565b92915050565b600060208284031215611ff157611ff0611cb0565b5b6000611fff84828501611fc6565b91505092915050565b61201181611fa5565b82525050565b600060208201905061202c6000830184612008565b92915050565b6000806040838503121561204957612048611cb0565b5b600061205785828601611fc6565b925050602061206885828601611efd565b9150509250929050565b60006020828403121561208857612087611cb0565b5b600061209684828501611efd565b91505092915050565b6120a881611e27565b82525050565b60006020820190506120c3600083018461209f565b92915050565b6120d281611d3f565b81146120dd57600080fd5b50565b6000813590506120ef816120c9565b92915050565b6000806040838503121561210c5761210b611cb0565b5b600061211a85828601611efd565b925050602061212b858286016120e0565b9150509250929050565b600080fd5b600080fd5b7f4e487b7100000000000000000000000000000000000000000000000000000000600052604160045260246000fd5b61217782611dbb565b810181811067ffffffffffffffff821117156121965761219561213f565b5b80604052505050565b60006121a9611ca6565b90506121b5828261216e565b919050565b600067ffffffffffffffff8211156121d5576121d461213f565b5b6121de82611dbb565b9050602081019050919050565b82818337600083830152505050565b600061220d612208846121ba565b61219f565b9050828152602081018484840111156122295761222861213a565b5b6122348482856121eb565b509392505050565b600082601f83011261225157612250612135565b5b81356122618482602086016121fa565b91505092915050565b6000806000806080858703121561228457612283611cb0565b5b600061229287828801611efd565b94505060206122a387828801611efd565b93505060406122b487828801611e48565b925050606085013567ffffffffffffffff8111156122d5576122d4611cb5565b5b6122e18782880161223c565b91505092959194509250565b6122f681611e27565b82525050565b600060ff82169050919050565b612312816122fc565b82525050565b600082825260208201905092915050565b600061233482611d75565b61233e8185612318565b935061234e818560208601611d91565b61235781611dbb565b840191505092915050565b61236b81611eaa565b82525050565b600060c08301600083015161238960008601826122ed565b50602083015161239c6020860182612309565b50604083015184820360408601526123b48282612329565b91505060608301516123c96060860182612362565b5060808301516123dc6080860182612362565b5060a08301516123ef60a0860182612362565b508091505092915050565b600060208201905081810360008301526124148184612371565b905092915050565b6000806040838503121561243357612432611cb0565b5b600061244185828601611efd565b925050602061245285828601611efd565b9150509250929050565b7f4e487b7100000000000000000000000000000000000000000000000000000000600052602260045260246000fd5b600060028204905060018216806124a357607f821691505b6020821081036124b6576124b561245c565b5b50919050565b60006060820190506124d16000830186611ebc565b6124de602083018561209f565b6124eb6040830184611ebc565b949350505050565b600081905092915050565b600061250982611d75565b61251381856124f3565b9350612523818560208601611d91565b80840191505092915050565b600061253b82856124fe565b915061254782846124fe565b91508190509392505050565b600081519050919050565b600082825260208201905092915050565b600061257a82612553565b612584818561255e565b9350612594818560208601611d91565b61259d81611dbb565b840191505092915050565b60006080820190506125bd6000830187611ebc565b6125ca6020830186611ebc565b6125d7604083018561209f565b81810360608301526125e9818461256f565b905095945050505050565b60008151905061260381611ce6565b92915050565b60006020828403121561261f5761261e611cb0565b5b600061262d848285016125f4565b91505092915050565b7f4e487b7100000000000000000000000000000000000000000000000000000000600052601260045260246000fd5b600060408201905061267a6000830185611ebc565b612687602083018461209f565b9392505050565b60006040820190506126a36000830185611ebc565b6126b06020830184612008565b939250505056fea26469706673582212201afc653d60c47114930751645423bb59d617cefe41a6ddf69f76962b2934969064736f6c63430008180033a264697066735822122071a8d4782283b72484ed211bac7128744d46883550e8dadd9bb6f752a774758064736f6c63430008180033",
  "linkReferences": {},
  "deployedLinkReferences": {}
}