{
  "_format": "hh-sol-artifact-1",
  "contractName": "Invoice",
  "sourceName": "contracts/Invoice.sol",
  "abi": [
    {
      "inputs": [
        {
          "components": [
            {
              "internalType": "uint256",
              "name": "amount",
              "type": "uint256"
            },
            {
              "internalType": "string",
              "name": "status",
              "type": "string"
            },
            {
              "internalType": "string",
              "name": "timestamp",
              "type": "string"
            },
            {
              "internalType": "address",
              "name": "transactionHash",
              "type": "address"
            },
            {
              "internalType": "address",
              "name": "customer",
              "type": "address"
            },
            {
              "internalType": "address",
              "name": "seller",
              "type": "address"
            }
          ],
          "internalType": "struct BillDefinition.Bill",
          "name": "bill",
          "type": "tuple"
        }
      ],
      "stateMutability": "nonpayable",
      "type": "constructor"
    },
    {
      "inputs": [],
      "name": "AccessControlBadConfirmation",
      "type": "error"
    },
    {
      "inputs": [
        {
          "internalType": "address",
          "name": "account",
          "type": "address"
        },
        {
          "internalType": "bytes32",
          "name": "neededRole",
          "type": "bytes32"
        }
      ],
      "name": "AccessControlUnauthorizedAccount",
      "type": "error"
    },
    {
      "inputs": [
        {
          "internalType": "address",
          "name": "sender",
          "type": "address"
        },
        {
          "internalType": "uint256",
          "name": "tokenId",
          "type": "uint256"
        },
        {
          "internalType": "address",
          "name": "owner",
          "type": "address"
        }
      ],
      "name": "ERC721IncorrectOwner",
      "type": "error"
    },
    {
      "inputs": [
        {
          "internalType": "address",
          "name": "operator",
          "type": "address"
        },
        {
          "internalType": "uint256",
          "name": "tokenId",
          "type": "uint256"
        }
      ],
      "name": "ERC721InsufficientApproval",
      "type": "error"
    },
    {
      "inputs": [
        {
          "internalType": "address",
          "name": "approver",
          "type": "address"
        }
      ],
      "name": "ERC721InvalidApprover",
      "type": "error"
    },
    {
      "inputs": [
        {
          "internalType": "address",
          "name": "operator",
          "type": "address"
        }
      ],
      "name": "ERC721InvalidOperator",
      "type": "error"
    },
    {
      "inputs": [
        {
          "internalType": "address",
          "name": "owner",
          "type": "address"
        }
      ],
      "name": "ERC721InvalidOwner",
      "type": "error"
    },
    {
      "inputs": [
        {
          "internalType": "address",
          "name": "receiver",
          "type": "address"
        }
      ],
      "name": "ERC721InvalidReceiver",
      "type": "error"
    },
    {
      "inputs": [
        {
          "internalType": "address",
          "name": "sender",
          "type": "address"
        }
      ],
      "name": "ERC721InvalidSender",
      "type": "error"
    },
    {
      "inputs": [
        {
          "internalType": "uint256",
          "name": "tokenId",
          "type": "uint256"
        }
      ],
      "name": "ERC721NonexistentToken",
      "type": "error"
    },
    {
      "anonymous": false,
      "inputs": [
        {
          "indexed": true,
          "internalType": "address",
          "name": "owner",
          "type": "address"
        },
        {
          "indexed": true,
          "internalType": "address",
          "name": "approved",
          "type": "address"
        },
        {
          "indexed": true,
          "internalType": "uint256",
          "name": "tokenId",
          "type": "uint256"
        }
      ],
      "name": "Approval",
      "type": "event"
    },
    {
      "anonymous": false,
      "inputs": [
        {
          "indexed": true,
          "internalType": "address",
          "name": "owner",
          "type": "address"
        },
        {
          "indexed": true,
          "internalType": "address",
          "name": "operator",
          "type": "address"
        },
        {
          "indexed": false,
          "internalType": "bool",
          "name": "approved",
          "type": "bool"
        }
      ],
      "name": "ApprovalForAll",
      "type": "event"
    },
    {
      "anonymous": false,
      "inputs": [
        {
          "indexed": true,
          "internalType": "bytes32",
          "name": "role",
          "type": "bytes32"
        },
        {
          "indexed": true,
          "internalType": "bytes32",
          "name": "previousAdminRole",
          "type": "bytes32"
        },
        {
          "indexed": true,
          "internalType": "bytes32",
          "name": "newAdminRole",
          "type": "bytes32"
        }
      ],
      "name": "RoleAdminChanged",
      "type": "event"
    },
    {
      "anonymous": false,
      "inputs": [
        {
          "indexed": true,
          "internalType": "bytes32",
          "name": "role",
          "type": "bytes32"
        },
        {
          "indexed": true,
          "internalType": "address",
          "name": "account",
          "type": "address"
        },
        {
          "indexed": true,
          "internalType": "address",
          "name": "sender",
          "type": "address"
        }
      ],
      "name": "RoleGranted",
      "type": "event"
    },
    {
      "anonymous": false,
      "inputs": [
        {
          "indexed": true,
          "internalType": "bytes32",
          "name": "role",
          "type": "bytes32"
        },
        {
          "indexed": true,
          "internalType": "address",
          "name": "account",
          "type": "address"
        },
        {
          "indexed": true,
          "internalType": "address",
          "name": "sender",
          "type": "address"
        }
      ],
      "name": "RoleRevoked",
      "type": "event"
    },
    {
      "anonymous": false,
      "inputs": [
        {
          "indexed": true,
          "internalType": "address",
          "name": "from",
          "type": "address"
        },
        {
          "indexed": true,
          "internalType": "address",
          "name": "to",
          "type": "address"
        },
        {
          "indexed": true,
          "internalType": "uint256",
          "name": "tokenId",
          "type": "uint256"
        }
      ],
      "name": "Transfer",
      "type": "event"
    },
    {
      "inputs": [],
      "name": "DEFAULT_ADMIN_ROLE",
      "outputs": [
        {
          "internalType": "bytes32",
          "name": "",
          "type": "bytes32"
        }
      ],
      "stateMutability": "view",
      "type": "function"
    },
    {
      "inputs": [],
      "name": "INVOICE_ROLE",
      "outputs": [
        {
          "internalType": "bytes32",
          "name": "",
          "type": "bytes32"
        }
      ],
      "stateMutability": "view",
      "type": "function"
    },
    {
      "inputs": [
        {
          "internalType": "address",
          "name": "to",
          "type": "address"
        },
        {
          "internalType": "uint256",
          "name": "tokenId",
          "type": "uint256"
        }
      ],
      "name": "approve",
      "outputs": [],
      "stateMutability": "nonpayable",
      "type": "function"
    },
    {
      "inputs": [
        {
          "internalType": "address",
          "name": "owner",
          "type": "address"
        }
      ],
      "name": "balanceOf",
      "outputs": [
        {
          "internalType": "uint256",
          "name": "",
          "type": "uint256"
        }
      ],
      "stateMutability": "view",
      "type": "function"
    },
    {
      "inputs": [
        {
          "internalType": "uint256",
          "name": "tokenId",
          "type": "uint256"
        }
      ],
      "name": "getApproved",
      "outputs": [
        {
          "internalType": "address",
          "name": "",
          "type": "address"
        }
      ],
      "stateMutability": "view",
      "type": "function"
    },
    {
      "inputs": [],
      "name": "getInvoice",
      "outputs": [
        {
          "components": [
            {
              "internalType": "uint256",
              "name": "amount",
              "type": "uint256"
            },
            {
              "internalType": "string",
              "name": "status",
              "type": "string"
            },
            {
              "internalType": "string",
              "name": "timestamp",
              "type": "string"
            },
            {
              "internalType": "address",
              "name": "transactionHash",
              "type": "address"
            },
            {
              "internalType": "address",
              "name": "customer",
              "type": "address"
            },
            {
              "internalType": "address",
              "name": "seller",
              "type": "address"
            }
          ],
          "internalType": "struct BillDefinition.Bill",
          "name": "",
          "type": "tuple"
        }
      ],
      "stateMutability": "view",
      "type": "function"
    },
    {
      "inputs": [
        {
          "internalType": "bytes32",
          "name": "role",
          "type": "bytes32"
        }
      ],
      "name": "getRoleAdmin",
      "outputs": [
        {
          "internalType": "bytes32",
          "name": "",
          "type": "bytes32"
        }
      ],
      "stateMutability": "view",
      "type": "function"
    },
    {
      "inputs": [
        {
          "internalType": "bytes32",
          "name": "role",
          "type": "bytes32"
        },
        {
          "internalType": "address",
          "name": "account",
          "type": "address"
        }
      ],
      "name": "grantRole",
      "outputs": [],
      "stateMutability": "nonpayable",
      "type": "function"
    },
    {
      "inputs": [
        {
          "internalType": "bytes32",
          "name": "role",
          "type": "bytes32"
        },
        {
          "internalType": "address",
          "name": "account",
          "type": "address"
        }
      ],
      "name": "hasRole",
      "outputs": [
        {
          "internalType": "bool",
          "name": "",
          "type": "bool"
        }
      ],
      "stateMutability": "view",
      "type": "function"
    },
    {
      "inputs": [
        {
          "internalType": "address",
          "name": "owner",
          "type": "address"
        },
        {
          "internalType": "address",
          "name": "operator",
          "type": "address"
        }
      ],
      "name": "isApprovedForAll",
      "outputs": [
        {
          "internalType": "bool",
          "name": "",
          "type": "bool"
        }
      ],
      "stateMutability": "view",
      "type": "function"
    },
    {
      "inputs": [],
      "name": "name",
      "outputs": [
        {
          "internalType": "string",
          "name": "",
          "type": "string"
        }
      ],
      "stateMutability": "view",
      "type": "function"
    },
    {
      "inputs": [
        {
          "internalType": "uint256",
          "name": "tokenId",
          "type": "uint256"
        }
      ],
      "name": "ownerOf",
      "outputs": [
        {
          "internalType": "address",
          "name": "",
          "type": "address"
        }
      ],
      "stateMutability": "view",
      "type": "function"
    },
    {
      "inputs": [
        {
          "internalType": "bytes32",
          "name": "role",
          "type": "bytes32"
        },
        {
          "internalType": "address",
          "name": "callerConfirmation",
          "type": "address"
        }
      ],
      "name": "renounceRole",
      "outputs": [],
      "stateMutability": "nonpayable",
      "type": "function"
    },
    {
      "inputs": [
        {
          "internalType": "bytes32",
          "name": "role",
          "type": "bytes32"
        },
        {
          "internalType": "address",
          "name": "account",
          "type": "address"
        }
      ],
      "name": "revokeRole",
      "outputs": [],
      "stateMutability": "nonpayable",
      "type": "function"
    },
    {
      "inputs": [
        {
          "internalType": "address",
          "name": "from",
          "type": "address"
        },
        {
          "internalType": "address",
          "name": "to",
          "type": "address"
        },
        {
          "internalType": "uint256",
          "name": "tokenId",
          "type": "uint256"
        }
      ],
      "name": "safeTransferFrom",
      "outputs": [],
      "stateMutability": "nonpayable",
      "type": "function"
    },
    {
      "inputs": [
        {
          "internalType": "address",
          "name": "from",
          "type": "address"
        },
        {
          "internalType": "address",
          "name": "to",
          "type": "address"
        },
        {
          "internalType": "uint256",
          "name": "tokenId",
          "type": "uint256"
        },
        {
          "internalType": "bytes",
          "name": "data",
          "type": "bytes"
        }
      ],
      "name": "safeTransferFrom",
      "outputs": [],
      "stateMutability": "nonpayable",
      "type": "function"
    },
    {
      "inputs": [
        {
          "internalType": "address",
          "name": "operator",
          "type": "address"
        },
        {
          "internalType": "bool",
          "name": "approved",
          "type": "bool"
        }
      ],
      "name": "setApprovalForAll",
      "outputs": [],
      "stateMutability": "nonpayable",
      "type": "function"
    },
    {
      "inputs": [
        {
          "internalType": "bytes4",
          "name": "interfaceId",
          "type": "bytes4"
        }
      ],
      "name": "supportsInterface",
      "outputs": [
        {
          "internalType": "bool",
          "name": "",
          "type": "bool"
        }
      ],
      "stateMutability": "view",
      "type": "function"
    },
    {
      "inputs": [],
      "name": "symbol",
      "outputs": [
        {
          "internalType": "string",
          "name": "",
          "type": "string"
        }
      ],
      "stateMutability": "view",
      "type": "function"
    },
    {
      "inputs": [
        {
          "internalType": "uint256",
          "name": "tokenId",
          "type": "uint256"
        }
      ],
      "name": "tokenURI",
      "outputs": [
        {
          "internalType": "string",
          "name": "",
          "type": "string"
        }
      ],
      "stateMutability": "view",
      "type": "function"
    },
    {
      "inputs": [
        {
          "internalType": "address",
          "name": "from",
          "type": "address"
        },
        {
          "internalType": "address",
          "name": "to",
          "type": "address"
        },
        {
          "internalType": "uint256",
          "name": "tokenId",
          "type": "uint256"
        }
      ],
      "name": "transferFrom",
      "outputs": [],
      "stateMutability": "nonpayable",
      "type": "function"
    }
  ],
  "bytecode": "0x60806040523480156200001157600080fd5b506040516200320b3803806200320b833981810160405281019062000037919062000738565b6040518060400160405280600781526020017f496e766f696365000000000000000000000000000000000000000000000000008152506040518060400160405280600481526020017f42494c4c000000000000000000000000000000000000000000000000000000008152508160009081620000b49190620009ca565b508060019081620000c69190620009ca565b505050806007600082015181600001556020820151816001019081620000ed9190620009ca565b506040820151816002019081620001059190620009ca565b5060608201518160030160006101000a81548173ffffffffffffffffffffffffffffffffffffffff021916908373ffffffffffffffffffffffffffffffffffffffff16021790555060808201518160040160006101000a81548173ffffffffffffffffffffffffffffffffffffffff021916908373ffffffffffffffffffffffffffffffffffffffff16021790555060a08201518160050160006101000a81548173ffffffffffffffffffffffffffffffffffffffff021916908373ffffffffffffffffffffffffffffffffffffffff160217905550905050620002357ffb338459882b624b9125c4cef6045cf2f3a5452b39abbaf54c2e5c45fcfb5942600760040160009054906101000a900473ffffffffffffffffffffffffffffffffffffffff166200029560201b60201c565b506200028d7ffb338459882b624b9125c4cef6045cf2f3a5452b39abbaf54c2e5c45fcfb5942600760050160009054906101000a900473ffffffffffffffffffffffffffffffffffffffff166200029560201b60201c565b505062000ab1565b6000620002a983836200039960201b60201c565b6200038e5760016006600085815260200190815260200160002060000160008473ffffffffffffffffffffffffffffffffffffffff1673ffffffffffffffffffffffffffffffffffffffff16815260200190815260200160002060006101000a81548160ff0219169083151502179055506200032a6200040460201b60201c565b73ffffffffffffffffffffffffffffffffffffffff168273ffffffffffffffffffffffffffffffffffffffff16847f2f8788117e7eff1d82e926ec794901d17c78024a50270940304540a733656f0d60405160405180910390a46001905062000393565b600090505b92915050565b60006006600084815260200190815260200160002060000160008373ffffffffffffffffffffffffffffffffffffffff1673ffffffffffffffffffffffffffffffffffffffff16815260200190815260200160002060009054906101000a900460ff16905092915050565b600033905090565b6000604051905090565b600080fd5b600080fd5b600080fd5b6000601f19601f8301169050919050565b7f4e487b7100000000000000000000000000000000000000000000000000000000600052604160045260246000fd5b620004708262000425565b810181811067ffffffffffffffff8211171562000492576200049162000436565b5b80604052505050565b6000620004a76200040c565b9050620004b5828262000465565b919050565b600080fd5b6000819050919050565b620004d481620004bf565b8114620004e057600080fd5b50565b600081519050620004f481620004c9565b92915050565b600080fd5b600080fd5b600067ffffffffffffffff82111562000522576200052162000436565b5b6200052d8262000425565b9050602081019050919050565b60005b838110156200055a5780820151818401526020810190506200053d565b60008484015250505050565b60006200057d620005778462000504565b6200049b565b9050828152602081018484840111156200059c576200059b620004ff565b5b620005a98482856200053a565b509392505050565b600082601f830112620005c957620005c8620004fa565b5b8151620005db84826020860162000566565b91505092915050565b600073ffffffffffffffffffffffffffffffffffffffff82169050919050565b60006200061182620005e4565b9050919050565b620006238162000604565b81146200062f57600080fd5b50565b600081519050620006438162000618565b92915050565b600060c0828403121562000662576200066162000420565b5b6200066e60c06200049b565b905060006200068084828501620004e3565b600083015250602082015167ffffffffffffffff811115620006a757620006a6620004ba565b5b620006b584828501620005b1565b602083015250604082015167ffffffffffffffff811115620006dc57620006db620004ba565b5b620006ea84828501620005b1565b6040830152506060620007008482850162000632565b6060830152506080620007168482850162000632565b60808301525060a06200072c8482850162000632565b60a08301525092915050565b60006020828403121562000751576200075062000416565b5b600082015167ffffffffffffffff8111156200077257620007716200041b565b5b620007808482850162000649565b91505092915050565b600081519050919050565b7f4e487b7100000000000000000000000000000000000000000000000000000000600052602260045260246000fd5b60006002820490506001821680620007dc57607f821691505b602082108103620007f257620007f162000794565b5b50919050565b60008190508160005260206000209050919050565b60006020601f8301049050919050565b600082821b905092915050565b6000600883026200085c7fffffffffffffffffffffffffffffffffffffffffffffffffffffffffffffffff826200081d565b6200086886836200081d565b95508019841693508086168417925050509392505050565b6000819050919050565b6000620008ab620008a56200089f84620004bf565b62000880565b620004bf565b9050919050565b6000819050919050565b620008c7836200088a565b620008df620008d682620008b2565b8484546200082a565b825550505050565b600090565b620008f6620008e7565b62000903818484620008bc565b505050565b5b818110156200092b576200091f600082620008ec565b60018101905062000909565b5050565b601f8211156200097a576200094481620007f8565b6200094f846200080d565b810160208510156200095f578190505b620009776200096e856200080d565b83018262000908565b50505b505050565b600082821c905092915050565b60006200099f600019846008026200097f565b1980831691505092915050565b6000620009ba83836200098c565b9150826002028217905092915050565b620009d58262000789565b67ffffffffffffffff811115620009f157620009f062000436565b5b620009fd8254620007c3565b62000a0a8282856200092f565b600060209050601f83116001811462000a42576000841562000a2d578287015190505b62000a398582620009ac565b86555062000aa9565b601f19841662000a5286620007f8565b60005b8281101562000a7c5784890151825560018201915060208501945060208101905062000a55565b8683101562000a9c578489015162000a98601f8916826200098c565b8355505b6001600288020188555050505b505050505050565b61274a8062000ac16000396000f3fe608060405234801561001057600080fd5b50600436106101375760003560e01c806370a08231116100b8578063b88d4fde1161007c578063b88d4fde1461035e578063bbbbaaad1461037a578063c87b56dd14610398578063d547741f146103c8578063e2f8b619146103e4578063e985e9c51461040257610137565b806370a08231146102a657806391d14854146102d657806395d89b4114610306578063a217fddf14610324578063a22cb4651461034257610137565b8063248a9ca3116100ff578063248a9ca3146101f25780632f2ff15d1461022257806336568abe1461023e57806342842e0e1461025a5780636352211e1461027657610137565b806301ffc9a71461013c57806306fdde031461016c578063081812fc1461018a578063095ea7b3146101ba57806323b872dd146101d6575b600080fd5b61015660048036038101906101519190611d84565b610432565b6040516101639190611dcc565b60405180910390f35b610174610454565b6040516101819190611e77565b60405180910390f35b6101a4600480360381019061019f9190611ecf565b6104e6565b6040516101b19190611f3d565b60405180910390f35b6101d460048036038101906101cf9190611f84565b610502565b005b6101f060048036038101906101eb9190611fc4565b610518565b005b61020c6004803603810190610207919061204d565b61061a565b6040516102199190612089565b60405180910390f35b61023c600480360381019061023791906120a4565b61063a565b005b610258600480360381019061025391906120a4565b61065c565b005b610274600480360381019061026f9190611fc4565b6106d7565b005b610290600480360381019061028b9190611ecf565b6106f7565b60405161029d9190611f3d565b60405180910390f35b6102c060048036038101906102bb91906120e4565b610709565b6040516102cd9190612120565b60405180910390f35b6102f060048036038101906102eb91906120a4565b6107c3565b6040516102fd9190611dcc565b60405180910390f35b61030e61082e565b60405161031b9190611e77565b60405180910390f35b61032c6108c0565b6040516103399190612089565b60405180910390f35b61035c60048036038101906103579190612167565b6108c7565b005b610378600480360381019061037391906122dc565b6108dd565b005b6103826108fa565b60405161038f9190612089565b60405180910390f35b6103b260048036038101906103ad9190611ecf565b61091e565b6040516103bf9190611e77565b60405180910390f35b6103e260048036038101906103dd91906120a4565b610987565b005b6103ec6109a9565b6040516103f99190612457565b60405180910390f35b61041c60048036038101906104179190612479565b610c1e565b6040516104299190611dcc565b60405180910390f35b600061043d82610cb2565b8061044d575061044c82610d94565b5b9050919050565b606060008054610463906124e8565b80601f016020809104026020016040519081016040528092919081815260200182805461048f906124e8565b80156104dc5780601f106104b1576101008083540402835291602001916104dc565b820191906000526020600020905b8154815290600101906020018083116104bf57829003601f168201915b5050505050905090565b60006104f182610e0e565b506104fb82610e96565b9050919050565b610514828261050f610ed3565b610edb565b5050565b600073ffffffffffffffffffffffffffffffffffffffff168273ffffffffffffffffffffffffffffffffffffffff160361058a5760006040517f64a0ae920000000000000000000000000000000000000000000000000000000081526004016105819190611f3d565b60405180910390fd5b600061059e8383610599610ed3565b610eed565b90508373ffffffffffffffffffffffffffffffffffffffff168173ffffffffffffffffffffffffffffffffffffffff1614610614578382826040517f64283d7b00000000000000000000000000000000000000000000000000000000815260040161060b93929190612519565b60405180910390fd5b50505050565b600060066000838152602001908152602001600020600101549050919050565b6106438261061a565b61064c81611107565b610656838361111b565b50505050565b610664610ed3565b73ffffffffffffffffffffffffffffffffffffffff168173ffffffffffffffffffffffffffffffffffffffff16146106c8576040517f6697b23200000000000000000000000000000000000000000000000000000000815260040160405180910390fd5b6106d2828261120d565b505050565b6106f2838383604051806020016040528060008152506108dd565b505050565b600061070282610e0e565b9050919050565b60008073ffffffffffffffffffffffffffffffffffffffff168273ffffffffffffffffffffffffffffffffffffffff160361077c5760006040517f89c62b640000000000000000000000000000000000000000000000000000000081526004016107739190611f3d565b60405180910390fd5b600360008373ffffffffffffffffffffffffffffffffffffffff1673ffffffffffffffffffffffffffffffffffffffff168152602001908152602001600020549050919050565b60006006600084815260200190815260200160002060000160008373ffffffffffffffffffffffffffffffffffffffff1673ffffffffffffffffffffffffffffffffffffffff16815260200190815260200160002060009054906101000a900460ff16905092915050565b60606001805461083d906124e8565b80601f0160208091040260200160405190810160405280929190818152602001828054610869906124e8565b80156108b65780601f1061088b576101008083540402835291602001916108b6565b820191906000526020600020905b81548152906001019060200180831161089957829003601f168201915b5050505050905090565b6000801b81565b6108d96108d2610ed3565b8383611300565b5050565b6108e8848484610518565b6108f48484848461146f565b50505050565b7ffb338459882b624b9125c4cef6045cf2f3a5452b39abbaf54c2e5c45fcfb594281565b606061092982610e0e565b506000610934611626565b90506000815111610954576040518060200160405280600081525061097f565b8061095e8461163d565b60405160200161096f92919061258c565b6040516020818303038152906040525b915050919050565b6109908261061a565b61099981611107565b6109a3838361120d565b50505050565b6109b1611ca0565b7ffb338459882b624b9125c4cef6045cf2f3a5452b39abbaf54c2e5c45fcfb59426109db81611107565b60076040518060c001604052908160008201548152602001600182018054610a02906124e8565b80601f0160208091040260200160405190810160405280929190818152602001828054610a2e906124e8565b8015610a7b5780601f10610a5057610100808354040283529160200191610a7b565b820191906000526020600020905b815481529060010190602001808311610a5e57829003601f168201915b50505050508152602001600282018054610a94906124e8565b80601f0160208091040260200160405190810160405280929190818152602001828054610ac0906124e8565b8015610b0d5780601f10610ae257610100808354040283529160200191610b0d565b820191906000526020600020905b815481529060010190602001808311610af057829003601f168201915b505050505081526020016003820160009054906101000a900473ffffffffffffffffffffffffffffffffffffffff1673ffffffffffffffffffffffffffffffffffffffff1673ffffffffffffffffffffffffffffffffffffffff1681526020016004820160009054906101000a900473ffffffffffffffffffffffffffffffffffffffff1673ffffffffffffffffffffffffffffffffffffffff1673ffffffffffffffffffffffffffffffffffffffff1681526020016005820160009054906101000a900473ffffffffffffffffffffffffffffffffffffffff1673ffffffffffffffffffffffffffffffffffffffff1673ffffffffffffffffffffffffffffffffffffffff168152505091505090565b6000600560008473ffffffffffffffffffffffffffffffffffffffff1673ffffffffffffffffffffffffffffffffffffffff16815260200190815260200160002060008373ffffffffffffffffffffffffffffffffffffffff1673ffffffffffffffffffffffffffffffffffffffff16815260200190815260200160002060009054906101000a900460ff16905092915050565b60007f80ac58cd000000000000000000000000000000000000000000000000000000007bffffffffffffffffffffffffffffffffffffffffffffffffffffffff1916827bffffffffffffffffffffffffffffffffffffffffffffffffffffffff19161480610d7d57507f5b5e139f000000000000000000000000000000000000000000000000000000007bffffffffffffffffffffffffffffffffffffffffffffffffffffffff1916827bffffffffffffffffffffffffffffffffffffffffffffffffffffffff1916145b80610d8d5750610d8c8261170b565b5b9050919050565b60007f7965db0b000000000000000000000000000000000000000000000000000000007bffffffffffffffffffffffffffffffffffffffffffffffffffffffff1916827bffffffffffffffffffffffffffffffffffffffffffffffffffffffff19161480610e075750610e0682610cb2565b5b9050919050565b600080610e1a83611775565b9050600073ffffffffffffffffffffffffffffffffffffffff168173ffffffffffffffffffffffffffffffffffffffff1603610e8d57826040517f7e273289000000000000000000000000000000000000000000000000000000008152600401610e849190612120565b60405180910390fd5b80915050919050565b60006004600083815260200190815260200160002060009054906101000a900473ffffffffffffffffffffffffffffffffffffffff169050919050565b600033905090565b610ee883838360016117b2565b505050565b600080610ef984611775565b9050600073ffffffffffffffffffffffffffffffffffffffff168373ffffffffffffffffffffffffffffffffffffffff1614610f3b57610f3a818486611977565b5b600073ffffffffffffffffffffffffffffffffffffffff168173ffffffffffffffffffffffffffffffffffffffff1614610fcc57610f7d6000856000806117b2565b6001600360008373ffffffffffffffffffffffffffffffffffffffff1673ffffffffffffffffffffffffffffffffffffffff168152602001908152602001600020600082825403925050819055505b600073ffffffffffffffffffffffffffffffffffffffff168573ffffffffffffffffffffffffffffffffffffffff161461104f576001600360008773ffffffffffffffffffffffffffffffffffffffff1673ffffffffffffffffffffffffffffffffffffffff168152602001908152602001600020600082825401925050819055505b846002600086815260200190815260200160002060006101000a81548173ffffffffffffffffffffffffffffffffffffffff021916908373ffffffffffffffffffffffffffffffffffffffff160217905550838573ffffffffffffffffffffffffffffffffffffffff168273ffffffffffffffffffffffffffffffffffffffff167fddf252ad1be2c89b69c2b068fc378daa952ba7f163c4a11628f55a4df523b3ef60405160405180910390a4809150509392505050565b61111881611113610ed3565b611a3b565b50565b600061112783836107c3565b6112025760016006600085815260200190815260200160002060000160008473ffffffffffffffffffffffffffffffffffffffff1673ffffffffffffffffffffffffffffffffffffffff16815260200190815260200160002060006101000a81548160ff02191690831515021790555061119f610ed3565b73ffffffffffffffffffffffffffffffffffffffff168273ffffffffffffffffffffffffffffffffffffffff16847f2f8788117e7eff1d82e926ec794901d17c78024a50270940304540a733656f0d60405160405180910390a460019050611207565b600090505b92915050565b600061121983836107c3565b156112f55760006006600085815260200190815260200160002060000160008473ffffffffffffffffffffffffffffffffffffffff1673ffffffffffffffffffffffffffffffffffffffff16815260200190815260200160002060006101000a81548160ff021916908315150217905550611292610ed3565b73ffffffffffffffffffffffffffffffffffffffff168273ffffffffffffffffffffffffffffffffffffffff16847ff6391f5c32d9c69d2a47ea670b442974b53935d1edc7fd64eb21e047a839171b60405160405180910390a4600190506112fa565b600090505b92915050565b600073ffffffffffffffffffffffffffffffffffffffff168273ffffffffffffffffffffffffffffffffffffffff160361137157816040517f5b08ba180000000000000000000000000000000000000000000000000000000081526004016113689190611f3d565b60405180910390fd5b80600560008573ffffffffffffffffffffffffffffffffffffffff1673ffffffffffffffffffffffffffffffffffffffff16815260200190815260200160002060008473ffffffffffffffffffffffffffffffffffffffff1673ffffffffffffffffffffffffffffffffffffffff16815260200190815260200160002060006101000a81548160ff0219169083151502179055508173ffffffffffffffffffffffffffffffffffffffff168373ffffffffffffffffffffffffffffffffffffffff167f17307eab39ab6107e8899845ad3d59bd9653f200f220920489ca2b5937696c31836040516114629190611dcc565b60405180910390a3505050565b60008373ffffffffffffffffffffffffffffffffffffffff163b1115611620578273ffffffffffffffffffffffffffffffffffffffff1663150b7a026114b3610ed3565b8685856040518563ffffffff1660e01b81526004016114d59493929190612605565b6020604051808303816000875af192505050801561151157506040513d601f19601f8201168201806040525081019061150e9190612666565b60015b611595573d8060008114611541576040519150601f19603f3d011682016040523d82523d6000602084013e611546565b606091505b50600081510361158d57836040517f64a0ae920000000000000000000000000000000000000000000000000000000081526004016115849190611f3d565b60405180910390fd5b805181602001fd5b63150b7a0260e01b7bffffffffffffffffffffffffffffffffffffffffffffffffffffffff1916817bffffffffffffffffffffffffffffffffffffffffffffffffffffffff19161461161e57836040517f64a0ae920000000000000000000000000000000000000000000000000000000081526004016116159190611f3d565b60405180910390fd5b505b50505050565b606060405180602001604052806000815250905090565b60606000600161164c84611a8c565b01905060008167ffffffffffffffff81111561166b5761166a6121b1565b5b6040519080825280601f01601f19166020018201604052801561169d5781602001600182028036833780820191505090505b509050600082602001820190505b600115611700578080600190039150507f3031323334353637383961626364656600000000000000000000000000000000600a86061a8153600a85816116f4576116f3612693565b5b049450600085036116ab575b819350505050919050565b60007f01ffc9a7000000000000000000000000000000000000000000000000000000007bffffffffffffffffffffffffffffffffffffffffffffffffffffffff1916827bffffffffffffffffffffffffffffffffffffffffffffffffffffffff1916149050919050565b60006002600083815260200190815260200160002060009054906101000a900473ffffffffffffffffffffffffffffffffffffffff169050919050565b80806117eb5750600073ffffffffffffffffffffffffffffffffffffffff168273ffffffffffffffffffffffffffffffffffffffff1614155b1561191f5760006117fb84610e0e565b9050600073ffffffffffffffffffffffffffffffffffffffff168373ffffffffffffffffffffffffffffffffffffffff161415801561186657508273ffffffffffffffffffffffffffffffffffffffff168173ffffffffffffffffffffffffffffffffffffffff1614155b801561187957506118778184610c1e565b155b156118bb57826040517fa9fbf51f0000000000000000000000000000000000000000000000000000000081526004016118b29190611f3d565b60405180910390fd5b811561191d57838573ffffffffffffffffffffffffffffffffffffffff168273ffffffffffffffffffffffffffffffffffffffff167f8c5be1e5ebec7d5bd14f71427d1e84f3dd0314c0f7b2291e5b200ac8c7c3b92560405160405180910390a45b505b836004600085815260200190815260200160002060006101000a81548173ffffffffffffffffffffffffffffffffffffffff021916908373ffffffffffffffffffffffffffffffffffffffff16021790555050505050565b611982838383611bdf565b611a3657600073ffffffffffffffffffffffffffffffffffffffff168373ffffffffffffffffffffffffffffffffffffffff16036119f757806040517f7e2732890000000000000000000000000000000000000000000000000000000081526004016119ee9190612120565b60405180910390fd5b81816040517f177e802f000000000000000000000000000000000000000000000000000000008152600401611a2d9291906126c2565b60405180910390fd5b505050565b611a4582826107c3565b611a885780826040517fe2517d3f000000000000000000000000000000000000000000000000000000008152600401611a7f9291906126eb565b60405180910390fd5b5050565b600080600090507a184f03e93ff9f4daa797ed6e38ed64bf6a1f0100000000000000008310611aea577a184f03e93ff9f4daa797ed6e38ed64bf6a1f0100000000000000008381611ae057611adf612693565b5b0492506040810190505b6d04ee2d6d415b85acef81000000008310611b27576d04ee2d6d415b85acef81000000008381611b1d57611b1c612693565b5b0492506020810190505b662386f26fc100008310611b5657662386f26fc100008381611b4c57611b4b612693565b5b0492506010810190505b6305f5e1008310611b7f576305f5e1008381611b7557611b74612693565b5b0492506008810190505b6127108310611ba4576127108381611b9a57611b99612693565b5b0492506004810190505b60648310611bc75760648381611bbd57611bbc612693565b5b0492506002810190505b600a8310611bd6576001810190505b80915050919050565b60008073ffffffffffffffffffffffffffffffffffffffff168373ffffffffffffffffffffffffffffffffffffffff1614158015611c9757508273ffffffffffffffffffffffffffffffffffffffff168473ffffffffffffffffffffffffffffffffffffffff161480611c585750611c578484610c1e565b5b80611c9657508273ffffffffffffffffffffffffffffffffffffffff16611c7e83610e96565b73ffffffffffffffffffffffffffffffffffffffff16145b5b90509392505050565b6040518060c00160405280600081526020016060815260200160608152602001600073ffffffffffffffffffffffffffffffffffffffff168152602001600073ffffffffffffffffffffffffffffffffffffffff168152602001600073ffffffffffffffffffffffffffffffffffffffff1681525090565b6000604051905090565b600080fd5b600080fd5b60007fffffffff0000000000000000000000000000000000000000000000000000000082169050919050565b611d6181611d2c565b8114611d6c57600080fd5b50565b600081359050611d7e81611d58565b92915050565b600060208284031215611d9a57611d99611d22565b5b6000611da884828501611d6f565b91505092915050565b60008115159050919050565b611dc681611db1565b82525050565b6000602082019050611de16000830184611dbd565b92915050565b600081519050919050565b600082825260208201905092915050565b60005b83811015611e21578082015181840152602081019050611e06565b60008484015250505050565b6000601f19601f8301169050919050565b6000611e4982611de7565b611e538185611df2565b9350611e63818560208601611e03565b611e6c81611e2d565b840191505092915050565b60006020820190508181036000830152611e918184611e3e565b905092915050565b6000819050919050565b611eac81611e99565b8114611eb757600080fd5b50565b600081359050611ec981611ea3565b92915050565b600060208284031215611ee557611ee4611d22565b5b6000611ef384828501611eba565b91505092915050565b600073ffffffffffffffffffffffffffffffffffffffff82169050919050565b6000611f2782611efc565b9050919050565b611f3781611f1c565b82525050565b6000602082019050611f526000830184611f2e565b92915050565b611f6181611f1c565b8114611f6c57600080fd5b50565b600081359050611f7e81611f58565b92915050565b60008060408385031215611f9b57611f9a611d22565b5b6000611fa985828601611f6f565b9250506020611fba85828601611eba565b9150509250929050565b600080600060608486031215611fdd57611fdc611d22565b5b6000611feb86828701611f6f565b9350506020611ffc86828701611f6f565b925050604061200d86828701611eba565b9150509250925092565b6000819050919050565b61202a81612017565b811461203557600080fd5b50565b60008135905061204781612021565b92915050565b60006020828403121561206357612062611d22565b5b600061207184828501612038565b91505092915050565b61208381612017565b82525050565b600060208201905061209e600083018461207a565b92915050565b600080604083850312156120bb576120ba611d22565b5b60006120c985828601612038565b92505060206120da85828601611f6f565b9150509250929050565b6000602082840312156120fa576120f9611d22565b5b600061210884828501611f6f565b91505092915050565b61211a81611e99565b82525050565b60006020820190506121356000830184612111565b92915050565b61214481611db1565b811461214f57600080fd5b50565b6000813590506121618161213b565b92915050565b6000806040838503121561217e5761217d611d22565b5b600061218c85828601611f6f565b925050602061219d85828601612152565b9150509250929050565b600080fd5b600080fd5b7f4e487b7100000000000000000000000000000000000000000000000000000000600052604160045260246000fd5b6121e982611e2d565b810181811067ffffffffffffffff82111715612208576122076121b1565b5b80604052505050565b600061221b611d18565b905061222782826121e0565b919050565b600067ffffffffffffffff821115612247576122466121b1565b5b61225082611e2d565b9050602081019050919050565b82818337600083830152505050565b600061227f61227a8461222c565b612211565b90508281526020810184848401111561229b5761229a6121ac565b5b6122a684828561225d565b509392505050565b600082601f8301126122c3576122c26121a7565b5b81356122d384826020860161226c565b91505092915050565b600080600080608085870312156122f6576122f5611d22565b5b600061230487828801611f6f565b945050602061231587828801611f6f565b935050604061232687828801611eba565b925050606085013567ffffffffffffffff81111561234757612346611d27565b5b612353878288016122ae565b91505092959194509250565b61236881611e99565b82525050565b600082825260208201905092915050565b600061238a82611de7565b612394818561236e565b93506123a4818560208601611e03565b6123ad81611e2d565b840191505092915050565b6123c181611f1c565b82525050565b600060c0830160008301516123df600086018261235f565b50602083015184820360208601526123f7828261237f565b91505060408301518482036040860152612411828261237f565b915050606083015161242660608601826123b8565b50608083015161243960808601826123b8565b5060a083015161244c60a08601826123b8565b508091505092915050565b6000602082019050818103600083015261247181846123c7565b905092915050565b600080604083850312156124905761248f611d22565b5b600061249e85828601611f6f565b92505060206124af85828601611f6f565b9150509250929050565b7f4e487b7100000000000000000000000000000000000000000000000000000000600052602260045260246000fd5b6000600282049050600182168061250057607f821691505b602082108103612513576125126124b9565b5b50919050565b600060608201905061252e6000830186611f2e565b61253b6020830185612111565b6125486040830184611f2e565b949350505050565b600081905092915050565b600061256682611de7565b6125708185612550565b9350612580818560208601611e03565b80840191505092915050565b6000612598828561255b565b91506125a4828461255b565b91508190509392505050565b600081519050919050565b600082825260208201905092915050565b60006125d7826125b0565b6125e181856125bb565b93506125f1818560208601611e03565b6125fa81611e2d565b840191505092915050565b600060808201905061261a6000830187611f2e565b6126276020830186611f2e565b6126346040830185612111565b818103606083015261264681846125cc565b905095945050505050565b60008151905061266081611d58565b92915050565b60006020828403121561267c5761267b611d22565b5b600061268a84828501612651565b91505092915050565b7f4e487b7100000000000000000000000000000000000000000000000000000000600052601260045260246000fd5b60006040820190506126d76000830185611f2e565b6126e46020830184612111565b9392505050565b60006040820190506127006000830185611f2e565b61270d602083018461207a565b939250505056fea2646970667358221220c182873258748addf16e380b0f0cece14105808c7c2125c5dfe81cebdd328d4664736f6c63430008180033",
  "linkReferences": {},
  "deployedLinkReferences": {}
}